:020000040800F2
:10000000180A002461030008F7620008BB5F0008BB
:10001000F5620008892000083F7200080000000017
:1000200000000000000000000000000079650008EA
:10003000D524000800000000F96200087B65000874
:100040007B0300087B0300087B0300087B03000898
:100050007B0300087B0300087B0300087B03000888
:100060007B0300087B0300087B0300088D20000849
:100070007B0300087B0300087B0300087B03000868
:100080007B0300087B0300087B0300087B03000858
:100090007B0300087B0300087B0300087B03000848
:1000A0007B0300087B0300087B0300087B03000838
:1000B0007B0300087B0300087B0300087B03000828
:1000C0007B0300087B0300087B0300087B03000818
:1000D0007B0300087B0300087B0300087B03000808
:1000E0007B0300087B030008000000007B0300087E
:1000F0007B0300087B0300087B0300087B030008E8
:100100007B0300087B0300087B0300087B030008D7
:100110007B0300087B0300087B0300087B030008C7
:100120007B0300087B0300087B0300087B030008B7
:100130007B0300087B0300087B0300087B030008A7
:1001400000000000000000000000000000000000AF
:100150007B0300087B0300087B0300087B03000887
:100160007B0300087B0300087B0300087B03000877
:100170007B0300087B0300087B0300087B03000867
:100180007B0300087B0300087B0300087B03000857
:100190007B0300087B0300087B0300087B03000847
:1001A0007B0300087B0300087B0300087B03000837
:1001B0007B0300087B0300087B0300087B03000827
:1001C0007B0300087B0300087B0300087B03000817
:1001D0007B0300087B0300087B0300087B03000807
:1001E0007B0300087B0300087B0300087B030008F7
:1001F0007B0300087B0300087B0300087B030008E7
:100200007B0300087B0300087B0300087B030008D6
:100210007B0300087B0300087B0300087B030008C6
:100220007B0300087B0300087B030008000000003C
:100230007B0300087B030008000000007B0300082C
:10024000992000087D2000087B0300087B0300083C
:100250007B0300087B0300087B0300087B03000886
:100260007B0300087B0300087B0300087B03000876
:100270007B0300087B0300087B03000800000000EC
:100280007B0300087B0300087B03000800000000DC
:10029000000000007B03000800F002F800F051F8B5
:1002A0000AA090E8000C82448344AAF10107DA45D1
:1002B00001D100F046F8AFF2090EBAE80F0013F0D2
:1002C000010F18BFFB1A43F0010318474C740000DC
:1002D0006C740000103A24BF78C878C1FAD852076D
:1002E00024BF30C830C144BF04680C6070470000B0
:1002F0000023002400250026103A28BF78C1FBD82F
:10030000520728BF30C148BF0B607047662907F00D
:100310009081002070471FB507F086F99DE8030023
:1003200000F0EEFE00F092FB04000020002107F038
:1003300065F9E06000F0A2FC1FBD10B500F007FDFC
:1003400010BD00F06FFD1146FFF7E5FF06F0B4FFAA
:1003500000F074FE03B4FFF7F0FF03BC01F062F895
:100360000948804709480047FEE7FEE7FEE7FEE749
:10037000FEE7FEE7FEE7FEE7FEE7FEE70448054985
:10038000054A064B704700003966000899020008CC
:1003900018040024180A0024180600241806002453
:1003A00053EA020C00F069802DE9F04B4FF0000693
:1003B000002B1FBFB3FA83F503FA05F424FA05F600
:1003C0005E4012BF1643B2FA82F502FA05F4C5F197
:1003D00020051EBF22FA05FC44EA0C04203556EA2B
:1003E000044C4FEA144418BF641C4FF000084FF04F
:1003F0000009904271EB030C39D3002919BFB1FAFF
:1004000081F701FA07F6B0FA80F700FA07F6C7F1AC
:1004100020071EBF20FA07FC46EA0C062037B6FB71
:10042000F4FCA7EB0507103F07F01F0BCBF12006EC
:100430000CFA0BFB2CFA06F644BFB3460026202F1D
:10044000A4BF5E464FF0000B5BEA060C08BF4FF0FE
:10045000010B19EB0B09ABFB027C48EB0608C01B38
:1004600006FB02CC0BFB03CC71EB0C01C1E70B4686
:10047000024641464846BDE8F08B13B54FF00000F8
:100480004FF00001AFF30080BDE81C407047000052
:100490000FB4044910B503AA029800F0C5FA10BCC5
:1004A0005DF814FB100300242DE9F0474FF0000A1B
:1004B00089460446C0F820A02046E1688847002805
:1004C00076D0252806D0D4E901219047206A401C27
:1004D0002062F1E7E168204600258847C4F81CA0A7
:1004E00006460027C4F818A02A2E09D0304606F088
:1004F000D0FE38B304EB8708303EC8F8186019E026
:1005000059F8041B204604EB87029161E168884793
:10051000012F064618D1E069002820DA25F02005D1
:100520001DE0D8F8180000EB800006EB40003038E2
:10053000C8F818002046E1688847064606F0A9FE7C
:100540000028EED1012F0AD02E2E08D12046E168D6
:1005500088477F1C0646022F45F02005C4DBA069B2
:10056000002803DA404245F00105A061E80701D008
:1005700025F01005B6B1A6F14100192802D82036A1
:1005800045F400654A463146204625604D46FFF752
:10059000BDFE58B1012806D0ED1D25F0070000F181
:1005A000080989E704E005F1040985E730468AE790
:1005B000206ABDE8F0874FF0000200B5134694466C
:1005C0009646203922BFA0E80C50A0E80C50B1F1AB
:1005D0002001BFF4F7AF090728BFA0E80C5048BFBF
:1005E0000CC05DF804EB890028BF40F8042B08BF5D
:1005F000704748BF20F8022B11F0804F18BF00F859
:10060000012B704770477047704770472DE9FF4FC7
:100610000C461E464FF0FF378BB0D2E90001DDF8E3
:1006200060800A908A46C1F30A5505B93D4600210B
:1006300008464FF00000BAF1000F00F4400005DA60
:1006400000EB80004FF4400101EA50004FEA90595E
:10065000B9F1010F00DDB9460A9850EA4A000ED000
:1006600044F61050A5F2FF3545432F14B8F1000FA2
:100670001ED07542291E1EDDC9F100021CE0B8F132
:10068000010F4FF0000001D0302103E0F24305E0FC
:100690002154401CB042FBDB304600220021215493
:1006A0000B99C1F80880C1E900200FB0BDE8F08FB8
:1006B000BD1B6D1CDEE74A4600DA694206A800F061
:1006C00067FA06AB93E8070003AB83E807005046E0
:1006D0000A9900F043FF8DE80700A0F500501F388D
:1006E00000900398002D0ADD42F21F014A4608449B
:1006F000002303A90390684601F0ACF909E0A0F5D6
:1007000000504A461F38002303A90390684601F0B1
:10071000B6F98DE807000004000C03D04FF0FF305D
:10072000410800E01046B8F1000F03D0002200920B
:1007300015461EE0751E05D400F08CF93032625566
:100740006D1EF9D5B3460122084302D000227F1C5A
:1007500004E02078302801D100227F1E002A09976A
:1007600084D01DE0112D07DA00F074F930326255A3
:100770006D1C50EA0102F5D1084302D00098C8B1BF
:100780000EE00021681E05E0235C625C6354225485
:10079000401E491C8142F7DBAB46A81B401E099056
:1007A000002004F80B000B98099AC0F80880C0E9F3
:1007B000002B7AE711264FF0000857E72DE9F04F9C
:1007C00088460446D21D22F0070191B0D1E900010C
:1007D000CDE90A0106F034FD02460B98C00F01D0A6
:1007E0002D2007E02068810701D52B2002E0202181
:1007F00001EAC000032A099001D0072A05DB03465D
:100800004146204600F084F90BE12078800601D5AE
:10081000E06900E00620B8F1650F814606D0B8F126
:10082000660F18D0B8F1670F70D131E00020B9F130
:10083000110F009001DB112301E009F101030AAA65
:1008400001A90CA8FFF7E2FEDDE90C70002609F112
:100850000105834647E001204B4600904FF00047DA
:100860000AAA01A90CA8FFF7D1FEDDE90DB00C9989
:100870005D46002610B909F101000D18B9EB05001D
:1008800003D4C0F1FF3609F10105A5EB09002BE007
:10089000B9F1010F01DA4FF001090020B9F1110F90
:1008A0000090484601DD112300E003460AAA01A991
:1008B0000CA8FFF7ABFEDDE90C704D460026834621
:1008C000207800070AD4AB4500DA5D4601A8012D67
:1008D00004DD411911F8011C302907D04F4502DA17
:1008E00017F1040F04DA012082460FE06D1EEEE7D7
:1008F000002F02DCED1B3E4403E0781CA84200DD23
:100900007D1CB81B00F1010A4FF00047207800075A
:1009100003D4AA4501DB4FF0FF3A0021B7F1004FA5
:100920000DF143088DF8431024D002202B23002F13
:1009300001DA7F422D230A21021EA0F1010000DC12
:100940005FB197FBF1FC97FBF1F201FB1C7C1746B2
:100950000CF1300C08F801CDEEE7A8F101000370AE
:100960002188090501D5452100E06521A0F1010894
:1009700000F8011C09980FA9A1EB0807FF1D00B1A1
:100980000120411901EBEA70A1693844081A401EA0
:10099000A0612078C00602D42046AFF300800998F9
:1009A00028B1D4E901219047206A401C20622078B8
:1009B000C00622D52046AFF300801EE0002E04DBE7
:1009C000B34502DD01A8805D00E03020D4E90121BB
:1009D0009047206A401C2062761CAAF101005FEA61
:1009E000000A0AD100F032F8C0680168405CD4E91E
:1009F00001219047206A401C2062281EA5F10105B4
:100A0000DCDC07E0D4E9012118F8010B9047206AEB
:100A1000401C2062381EA7F10107F3DC2046AFF32B
:100A20000080032011B041E6074B70B50D467B44B2
:100A300000F05BF80446284600F01CF910B14FF0B6
:100A4000FF3070BD204670BD6F68000000487047E1
:100A5000D803002430B5B0F10A024FEA900E71F1CC
:100A600000034EEA817EB0EB0E0061EB91014FEA8C
:100A7000101E4EEA017E10EB0E0041EB11114FEA01
:100A8000102E4EEA016E10EB0E0041EB11214FEAE1
:100A9000104E4EEA014E10EB0E0041EB1141401892
:100AA00041F100014FEAD00040EA41704FEAD10124
:100AB00010EB80054FEA810444EA907444EB010492
:100AC0006D1944EB0404521BA3414FF0000348BFCF
:100AD0000A3200D530BD401C41F1000130BD00009C
:100AE00001694A1C02610878704700B58FB0CDE9F2
:100AF00001310021059105497944CDE903101146E2
:100B00006846FFF7D1FC0FB000BD0000E5FFFFFF16
:100B10002DE9F0411F46044603260168072A01F427
:100B2000006004DB08B116A505E016A503E008B1D6
:100B300015A500E015A521F010002060A069C01ED9
:100B4000A0610FB1401EA0612046AFF300804FB1FD
:100B5000D4E9012138469047206A401C2062C01C1D
:100B6000206206E0206AFAE7D4E9012115F8010BBA
:100B70009047761EF8D22046AFF30080BDE8F081A2
:100B80004E414E006E616E00494E4600696E660031
:100B90002DE9F047814616468AB0354878440DC89D
:100BA0008DE80D0032487844801C03AC0DC884E801
:100BB0000D0041F69B300844372190FBF1F290FB89
:100BC000F1F5A5F1800501FB12041B3C02D564423E
:100BD000012000E00020DFF898A080460027FA44BA
:100BE000AAF1BE0A0EE0E0070AD03246684607EBDB
:100BF000470101230AEB810100F041FF8DE8070066
:100C000064107F1C002CEED1194F7F44AE3F19E0D9
:100C1000E80715D007EB04100DF1180A90E80E0054
:100C20008AE80E00C068F04201D198190890324657
:100C3000012306A903A800F022FF03AB83E8070005
:100C40006D10641C002DE3D14FF00103324669465C
:100C5000B8F1000F03A802D000F0FCFE01E000F0A4
:100C60000EFFC9E90001C9F808200AB0BDE8F08705
:100C7000546B0000007B00F08000704710B54248C4
:100C80005421FFF798FC41485421FFF794FC404859
:100C90005421FFF790FC3F493B483C4A3F4B0860DA
:100CA0003D490A603A491960531C0365481C1065A8
:100CB000012008653B48344A39A1784400F022F904
:100CC00020B9384878440A3800F0C1F937482F4A2B
:100CD00035A1784400F016F920B9344878440A3830
:100CE00000F0B5F932482A4A2FA1784400F00AF9F9
:100CF00020B92F4878440A3800F0A9F94023224847
:100D0000DC000021224600F0D9F820B125487844C3
:100D1000543800F09CF91D4822464023002100F081
:100D2000CDF820B121487844543800F090F91848A3
:100D300022461023002100F0C1F8002806D01C48EC
:100D40007844BDE81040563800F081B910BD104815
:100D500070B5006D20F001040B4800F049F90B4814
:100D600000F046F90A4800F043F909E0206D20F050
:100D70000105204600F03CF9204600F078F82C46AA
:100D8000002CF3D170BD0000BC020024100300242D
:100D900064030024280000242C00002430000024D8
:100DA000720000004E6A0000770000003A6A0000FE
:100DB000266A00000EB5CDE9000100F013FB029099
:100DC00069460120ABBE0EBD08B569460090022001
:100DD000ABBE08BD1FB58DE8070069460520ABBE58
:100DE00004B010BD1FB58DE80F0069460620ABBEEC
:100DF000F6E708B5694600900920ABBE08BD1CB5F2
:100E0000CDE9000169460A20ABBE1CBD704708B59C
:100E1000694600900C20ABBE08BD0000004870473A
:100E2000B80300247546FFF7F9FFAE460500694692
:100E3000534620F00700854618B020B5FFF79EFA0C
:100E4000BDE820404FF000064FF000074FF00008CB
:100E50004FF0000B21F00701AC46ACE8C009ACE84C
:100E6000C009ACE8C009ACE8C0098D46704770B550
:100E70000446051F00F028F90068002C14BF4468E0
:100E800070BD002C18BFAC423CBF20466468F8D34C
:100E900001680A18AA4218BF456003D12A680546AE
:100EA0001144016028684119A1421CBF6C6070BDEB
:100EB0006168696021680844286070BD70B5C468C5
:100EC000A50713D0650211D4B2F5807F09D0B2F521
:100ED000007F06D0B2F5806F08D1012300F1240114
:100EE00006E05D1E6FF07F46B54201D3012070BD64
:100EF0000161C361416024F470611143C16000204D
:100F000070BD00002DE9F0410C460746164610461C
:100F100000F06EF82078611C61280AD0722802D097
:100F200077283CD102E00125002405E002250424B5
:100F300002E0082448F2020511F8010B2B2806D024
:100F4000622809D011F8010C74280AD00BE045F092
:100F5000030544F00204EFE745F0040544F0010402
:100F6000EAE744F0100438462146FFF723FF411C0E
:100F700015D00021316171604FF40071F560F161AD
:100F80007061200704D530460222002100F016F9D6
:100F9000306D40F0010030653046BDE8F081002042
:100FA000FBE72DE9F0410D460646104C206DC107C8
:100FB00004D0410804D020F00104F7E722460EE0F7
:100FC000542000F0CCF807000ED0206D47F001014E
:100FD0000843542120653846FFF7EDFA3A46294682
:100FE0003046BDE8F0418DE70020D6E7BC02002482
:100FF0002DE9F04704464FF000094FF0FF37C56870
:10100000D4E90486A80707D0204600F087F93046C7
:10101000FFF7DAFE002802DA3846BDE8F087280537
:1010200002D54046FFF723FF4C212046FFF7C3FAC5
:10103000206D20F0010020654846EEE710B504461B
:10104000AFF300802046BDE81040FFF783B910B52C
:1010500000F0AEF9BDE8104000F0A4B94FF0013C3B
:1010600050F8042B51F8043B9A4215D1A2EB0C0323
:10107000934313EACC130BD150F8042B51F8043BE3
:101080009A4209D1A2EB0C03934313EACC13E7D0A5
:101090004FF00000704700BFD01A01BAB1FA81F1D9
:1010A00001F0180122FA01F0CB40C1F12001DBB2BE
:1010B000C0B2C01A2CFA01F3D11A914311EAC3113C
:1010C000E6D170477047000000487047C003002415
:1010D000704770477047704738B504460A4600208D
:1010E0006946AFF30080002808BF38BD024600996A
:1010F000204600F0A4F9012038BD012000F0F3B92A
:10110000F8B5AFF30080054600200C46102000BF64
:101110000646A819A0420DD9324669460020AFF311
:101120000080070008BF00F0DEF90098A04218BF59
:101130000546C419FFF7C8FF05600746F01D20F0FB
:1011400007004619284600F073F9B44208BFF8BDFD
:10115000A21B31463868BDE8F84000F070B970B5A0
:101160000646FFF7B1FF056806F10B0020F0070403
:10117000B4429CBF002070BD2B466A68BAB11068AB
:10118000A04210D304F1080188423CBF5068586067
:1011900007D35168101941601168091B016058603C
:1011A0001460101D70BD13465268002AE7D1214615
:1011B0002846FFF791FF0028DED170BD2DE9F041F0
:1011C000044616460D464769007B80072ED03846F8
:1011D000FFF70FFE50BB3EB3012E02D0022E25D1E9
:1011E00004E0204600F045F905441DE03846FFF7CD
:1011F0000EFEE168002841F01001E16005DA2046AA
:1012000000F058F80120BDE8F081C9030BD56268F1
:10121000E16A914200D81146A26911442269891AF3
:10122000814200DD08460544002D01DA0220EAE78C
:10123000E16A6068E268814206D29103E06203D508
:1012400022F4003141F01002A6690027AE4213DCFF
:10125000E16A814201D90B4600E0034603EB060C2C
:101260002369ACEB030CAC4506DD814201D98C4609
:1012700000E084469C4505D1A760276042F020002D
:10128000A5620DE0AD1BE669AE1B8142A66000D9E8
:101290000846C01A281A20605819606022F0200001
:1012A00003490840E060002084F84870ABE7000084
:1012B000BFCFD7FFC16821F4001141F08001C160A8
:1012C00000218160016070472DE9F0478146144696
:1012D0000E464FF0FF383248D5685769054209D0AD
:1012E0003846A169FFF78BFD002811DB2C48C0436D
:1012F0000540E5602B46324649463846FFF76AFD11
:10130000A16920F00042B21A11440028A16103D063
:101310002046FFF7CFFF4046BDE8F08770B5044692
:101320000569C06A6168884200D80846E16821F40E
:101330002011E160C90312D5A84208D02246411B02
:101340002846FFF7C1FF10B14FF0FF3070BD0020FD
:10135000E562C4E90150E06820F48030E0600020DC
:1013600070BD10B50446C06820F02000E060A16A9E
:10137000A06988420DD02046FFF7D0FFE06820F436
:10138000405040F01000E060A06AA0612069E06277
:10139000606044F24001E0688843E06010BD0000F6
:1013A00010000200002801D000F03CB87047000097
:1013B00010B5014602A000F07DF8012010BD00002C
:1013C00053494752545245443A2052656469726504
:1013D00063743A2063616E2774206F70656E3A20E3
:1013E0000000000010B5431C02E010F8011B71B1B1
:1013F0008107FAD14FF0013202C88C1A8C4314EAEB
:10140000C211F9D0C01A0A0603D0C01E10BDC01AFE
:1014100010BD0A0401D0801E10BD0902FCD0401E80
:1014200010BD000001491820ABBEFEE726000200F7
:1014300000210160C0E90110704710207047034689
:1014400040688C46002818BF88423CBF034640686D
:10145000F8D318681844884207D00CF1030020F034
:101460000700001D411A521A0146081D0A60FFF7C5
:10147000FEBC10B50146C268900703D0900607D5A0
:10148000886A0AE000F03EF801210160881E10BD64
:101490008B69486818440B69C01A91F848301BB131
:1014A00091F84910401A10BD1103FCD50028FADD4F
:1014B000401E10BD70B505460C460A2000E06D1CAC
:1014C00000F018F835B128780028F8D102E0641C43
:1014D00000F010F814B120780028F8D1BDE8704071
:1014E0000A2000F007B810B500F010F8BDE8104071
:1014F000FFF758BF08B569468DF800000320ABBE62
:1015000008BD000000487047B803002410B501284A
:1015100005D0002103A0FFF7CDFF012010BD09A1D8
:10152000F8E7000053494752544D454D3A204F7556
:1015300074206F662068656170206D656D6F7279CB
:10154000000000003A2048656170206D656D6F7283
:101550007920636F72727570746564005FEA400C85
:1015600008BF91F0000F4FEA8C234FEAC12243EAF3
:1015700051514FEA1C5018BF00F5F0404FEA3000BF
:1015800018BF41F000415FEA6C5C00F02980BCF1BB
:10159000FF3F08BF40F080407047130C06BF1204A5
:1015A0004FF0100C4FF0000C130E04BF12020CF1A0
:1015B000080C130F04BF12010CF1040C930F04BFAD
:1015C00092000CF1020CD30F04BF52000CF1010C7D
:1015D00011464FF00002A0F11F00A0EB0C00704775
:1015E00011F0004F08BF704731F000413FF4D5AF14
:1015F0000B0C06BF09044FF0100C4FF0000C0B0E43
:1016000004BF09020CF1080C0B0F04BF09010CF117
:10161000040C8B0F04BF89000CF1020CCB0F04BF2C
:1016200049000CF1010CCCF12003A0EB0C0022FAD4
:1016300003F302FA0CF241EA030100F101007047E2
:1016400020F07F4C80EA030023F07F47ACEB0703D8
:1016500003F57C5300F0004003F1FF032DE98049BE
:101660004FEA154B09B44FEA144325EA0B4E24EA1E
:1016700003480FF2042606EB132749083E785FEA79
:10168000320203FB0667C7F5000707FB06F64FEAC1
:1016900054374FEAD64606F1020607FB066CCCF13A
:1016A000005C4FEA1C472CEA074C07FB06F40CFBD6
:1016B00006F504EB15464FEA961634BF00204FF0AE
:1016C00000404FEAD13706FB07FC4FEA1C4C0CFBED
:1016D0000BF7D21B03FB0CF761EB07010CFB0EF7BA
:1016E000B0EB074072EB17420CFB08F734BFA2EBDC
:1016F0000742B2EB074261EB17414FEA0C444FEA55
:10170000910706FB07FC4FEA1C4C0CFB0BF7B0EBF8
:10171000C74072EB573203FB0CF734BFA2EBC74252
:10172000B2EBC74261EB57310CFB0EF7B0EBC700D1
:1017300072EB57720CFB08F734BFA2EBC702B2EB97
:10174000C70261EB5771039F4FEA816141EA921131
:1017500004EBCC044FEAD1374FEA826206FB07FC68
:1017600042EA90124FEA80604FEA1C4C0CFB0BF7E8
:10177000D21B03FB0CF761EB07010CFB0EF7B0EB80
:10178000074072EB17420CFB08F734BFA2EB07428D
:10179000B2EB074261EB17414FEA8C554FEA9107D4
:1017A00004EB9C2406FB07FC4FEA1C4C0CFB0BF7DC
:1017B000B0EBC74072EB573203FB0CF734BFA2EB20
:1017C000C742B2EBC74261EB57310CFB0EF7B0EBEF
:1017D000C70072EB57720CFB08F734BFA2EBC702CD
:1017E000B2EBC70261EB577115EB4C254FEA8161F3
:1017F00041EA92114FEA82624FEAD13742EA9012EF
:1018000006FB07FC44F100044FEA80604FEA1C4CE1
:101810000CFB0BF7D21B03FB0CF761EB07010CFB76
:101820000EF7B0EB074072EB17420CFB08F734BF22
:10183000A2EB0742B2EB074261EB174115EB1C1517
:101840004FEA813141EA92414FEA823242EA9042C4
:101850004FEA80304FEA0C7644F1000448EA034333
:101860004EEA0B484FF0000EB2EB080C71EB030789
:1018700024BF624639464EEB0E0E4FF0000B0018A7
:10188000524149414BEB0B0BB2EB080C71EB0307D8
:101890007BF1000B24BF624639464EEB0E0E4FF033
:1018A000000B0018524149414BEB0B0BB2EB080CFB
:1018B00071EB03077BF1000B24BF624639464EEB08
:1018C0000E0E51EA020718BF46F0010616EB0E761F
:1018D00055F1000254F1000103D5BDE88901BDE8CE
:1018E0000088BDE88901BDE80048B619524141EBC6
:1018F0000101A3F10103704780807F7E7D7C7B7AAC
:101900007978777676757473727171706F6E6E6DAB
:101910006C6C6B6A6A696868676666656464636351
:1019200062616160605F5F5E5E5D5D5C5C5B5B5AD7
:101930005A59595858575756565555555454535344
:1019400052525251515050504F4F4F4E4E4D4D4D9F
:101950004C4C4C4B4B4B4A4A4A49494948484847EA
:101960004747474646464545454444444443434328
:101970004342424242414141002B9C4630D47700D1
:101980002BD01CB54FEA370703B44FF010004FF0CF
:101990001001BAF1000F06D0BCF1000FDCBF40F01F
:1019A000080040F008014FF000000FBCBDE81040F7
:1019B0000BF1010BBBF1010F08BF5FEA170722BF54
:1019C00012F1010211F101014FF0004143F1000356
:1019D00000F0004043EA00007047F9D35708D0E711
:1019E00046EA064613F1400F4FEA16461FDD13F193
:1019F000200FDFBF16430A46002120335B42BED0D2
:101A0000C3F1200746EA064602FA07F74FEA1646F0
:101A100046EA0706C3F1200722FA03F201FA07F7A4
:101A200021FA03F14FF0000342EA0702A7E746EA72
:101A3000020646EA06464FEA164646EA0106BCBFDB
:101A400046EA0646360C4FF000034FF000024FF016
:101A5000000194E72DE9804C9A46934670B491E8D2
:101A6000380007C831EA400C48BF34EA430C03D5BC
:101A7000FFF7E6FDFFF780FFF0BCBDE8008C2DE925
:101A8000804C9A46934670B491E8380007C810F02D
:101A9000804F08BF13F0804F03D100F005F8FFF727
:101AA0006BFFF0BCBDE8008C20F07F4780EA0300AC
:101AB00023F07F4C07EB0C03A3F57C5300F00040B0
:101AC000A3F1FE0392F0000F00F0B38095F0000F39
:101AD00000F077802DE901494FEA11404FEA1446A2
:101AE00021EA004800FB06FC24EA064708FB06F64C
:101AF00007FB08F800FB07F718EB06484CEB164C01
:101B00004FEA124B18EB07484FEA15464CEB1740CB
:101B100022EA0B4E0BFB06FC25EA06470EFB06F6F7
:101B200007FB0EFE0BFB07F71EEB064E4CEB164CAD
:101B30004FF000061EEB074E4CEB174B18EB0B0853
:101B400040F1000018EB0E0B58EB000840F10000CC
:101B50008F1A4FF000013CBFC943661B14BFB5EBA1
:101B6000040C00213CBFC943F61B4FEA17444EEA60
:101B70008E0E27EA04454FEA1C4704FB07622CEA55
:101B8000074C05FB07F70CFB05F604FB0CFC16EBFA
:101B9000074642EB174216EB0C4642EB1C421BEB8E
:101BA000060658EB0202414146EA9E0601D5BDE811
:101BB0000189B619524141EB0101A3F10103BDE8CE
:101BC00001894FEA14454FEA114724EA054621EA04
:101BD000074C05FB07F406FB07F70CFB06F105FBBA
:101BE0000CFC11EB074144EB17444FEA124711EB91
:101BF0000C4144EB1C4422EA074C05FB07F206FBB0
:101C000007F70CFB06F605FB0CFC16EB074642EB50
:101C1000174216EB0C4642EB1C456A1854F10001C2
:101C200048BF7047B619524141EB0101A3F10103CE
:101C3000704795F0000F37D04FEA11424FEA144732
:101C400021EA024624EA074C02FB07F106FB07F7EC
:101C50000CFB06F402FB0CFC14EB074441EB1741B0
:101C60004FEA154714EB0C4441EB1C4125EA074CA5
:101C700002FB07F506FB07F70CFB06F602FB0CFC64
:101C800016EB074645EB174516EB0C4645EB1C4299
:101C9000121951F1000148BF7047B619524141EB8A
:101CA0000101A3F1010370474FEA14454FEA1147C0
:101CB00024EA054621EA074C05FB07F106FB07F776
:101CC0000CFB06F24FF0000605FB0CFC12EB074282
:101CD00041EB174112EB0C4251EB1C4148BF7047DE
:101CE000921841EB0101A3F10103704770B53A4925
:101CF00005460068884202D0384A904202D1D1F8A5
:101D0000080302E03648D0F8080310F4403F11D031
:101D100003F046FC04466868B0F5803F06D0B0F595
:101D2000003F03D0B0F5403F26D101E0000C17E0A2
:101D3000A40821E04FF4002002F064FD0446686826
:101D40008103890B18D181140C2915D2DFE801F029
:101D5000140606060606060B0D0F1113800C400034
:101D6000B4FBF0F408E0240906E0640904E0A409E7
:101D700002E0E40900E0240A02F070FA41F20301F3
:101D8000884208D8174884422868816813D821F40B
:101D90008071816070BD14496008884204D8286849
:101DA000816821F44071F4E71049884206D8286818
:101DB000816821F4407141F48071EAE70C4988425E
:101DC0002868816804D821F4407141F40071E0E78B
:101DD00041F44071DDE70000002002400021024094
:101DE00000600258002D3101105E5F0020BCBE0073
:101DF00040787D012DE9F0410027044600680D463A
:101E000004F0E0F80646206804F0D8F830435DD0CE
:101E100020682F4EC168890105D5617D012902D155
:101E2000217D01290BD0022D1DD0206804F0CAF8B5
:101E3000B8B120688168C1F3400169B111E025495A
:101E4000012502E08F4232D27F1C0268D243520643
:101E5000F8D440210160E8E78168314041F0100189
:101E60008160012D11D0206804F0A8F848B12068E5
:101E70008168C1F3400121B98168314041F02001FE
:101E80008160022D08D0032D04D0042502F0ECF966
:101E9000064617E00C25F9E70825F7E702F0E4F914
:101EA000801B05280ED92068806828420AD0606D02
:101EB00040F010006065A06D40F00100A0650120B9
:101EC000BDE8F081206880682842E7D10020F7E76C
:101ED000C0FFFF7F00DC0C0010B5846B616D11F05A
:101EE000500F06D0616DC90625D5204600F0D7FDFC
:101EF00010BD606D40F400706065206801680907DE
:101F000007D504F067F890B12068C068800403D555
:101F10000DE0C06880070AD1606D20F480706065B4
:101F2000606DC00403D4606D40F001006065204620
:101F300000F0A2FD10BDE16CC96CBDE8104008477F
:101F400010B5806B416D41F040014165816D41F0FC
:101F50000401816500F0A3FD10BD10B5806B00F099
:101F60009DFD10BD70B50446006881688268C1F3AC
:101F7000400112F0010F28D039BB816801F00D013A
:101F8000012914D18168124A1140891C816021689D
:101F90000320086002F068F9054612E002F064F9D7
:101FA000401B02280DD920688068C00709D0606DE9
:101FB00040F010006065A06D40F00100A0650120B8
:101FC00070BD20688068C007E8D1002070BD0000A7
:101FD000C0FFFF7F70B504460068816811F0010FF3
:101FE00040D18168204A11422DD18168D5432940D2
:101FF000491C816002F038F91C49064620681C4BD8
:10200000884201D0984201D11A4A00E01A4A9268E7
:10201000984202F01F0200D0014681421DD0E2B179
:1020200020E0816811F0010F03D181682940491C2B
:10203000816002F019F9801B02280ED9206800681F
:10204000C043C00709D0606D40F010006065A06D0E
:1020500040F00100A065012070BD20680168C943FF
:10206000C907DED1002070BD3F0000800020024083
:10207000002102400023024000630258014801F0A1
:1020800033B90000B4010024FEE70000014801F06C
:102090002BB900003C01002470470000294A016868
:1020A00091423AD0274A1832914236D0254A3032EE
:1020B000914232D0234A483291422ED0214A603296
:1020C00091422AD01F4A7832914226D01D4A90323E
:1020D000914222D01B4AA83291421ED01A4A914204
:1020E0001BD0194A1832914217D0174A3032914208
:1020F00013D0154A483291420FD0134A60329142B0
:102100000BD0114A7832914207D00F4A9032914257
:1021100003D00D4AA832914211D1CAB21823103A05
:10212000B2FBF3F26FF30901032A02F00703074A37
:10213000D25CC26500D9091D81650846704721F04F
:10214000FF01F9E710000240100402403676000853
:1021500030B5224A012301689142CAB21BD01F4CFC
:102160001434A14217D01D4C2834A14213D01B4C6B
:102170003C34A1420FD0194C5034A1420BD0174C23
:102180006434A14207D0154C7834A14203D0134CDB
:102190008C34A1420CD11421114C083AB2FBF1F15C
:1021A0000F4A803201F01F0504EB8101AB4010E0C3
:1021B0000C4D1824103A0D44B2FBF4F1A82D00D8B0
:1021C0000831094A01F01F0402EB8101064AA340CD
:1021D0008032603080E80E0030BD000008540258A4
:1021E00000580258F0FBFDBF0008024010B502790C
:1021F000531E072B2DD8174C0168A1421BD0154C3C
:102200001434A14217D0134C2834A14213D0114CDE
:102210003C34A1420FD00F4C5034A1420BD00D4C96
:102220006434A14207D00B4C7834A14203D0094C4E
:102230008C34A14203D10849074C443102E00749DC
:10224000064C443104EB8202C0E91B210121994074
:10225000416710BD08540258FC580258FC0802405F
:1022600010B583694FF0C074826A0146002053B1F3
:10227000B3F5005F15D072B1012A0CD0022A0AD042
:10228000032A09D104E01AB1012A06D0022A03D197
:10229000C96AC90100D5012010BDC96AA142FAD09E
:1022A00010BD002AF7D0012AF2D0022AF3D0032A67
:1022B000F3D010BD2DE9F04F804E804FDFF8FC9138
:1022C0001836DFF8F8A148370468856D0AF1300A3E
:1022D000DFF8ECB14C45DFF8ECC1DFF8ECE16DD094
:1022E000B4426BD0544569D0BC4267D0DFF8D0818E
:1022F000A8F11808444561D05C455FD064455DD0C5
:1023000074455BD0DFF8C481444557D0DFF8BC8109
:1023100008F11808444551D0DFF8B08108F13008C1
:1023200044454BD0DFF8A48108F14808444545D026
:10233000DFF8988108F1600844453FD0DFF88C81D0
:1023400008F17808444539D0DFF8808108F1900819
:10235000444533D0DFF8748108F1A80844452DD0F6
:10236000DFF86C81444529D0DFF8648108F1140856
:10237000444523D0DFF8588108F1280844451DD092
:10238000DFF84C8108F13C08444517D0DFF8408164
:1023900008F15008444511D0DFF8348108F1640891
:1023A00044450BD0DFF8288108F17808444505D072
:1023B000DFF81C8108F18C08444509D1D0E919489F
:1023C000C4F80480C46E1CB1D0E91C48C4F8048071
:1023D00004684C452ED0B4422CD054452AD0BC427F
:1023E00028D0374E183EB44224D05C4522D06445F4
:1023F00020D074451ED0354EB4421BD0334E183613
:10240000B44217D0314E3036B44213D02F4E483636
:10241000B4420FD02D4E6036B4420BD02B4E7836DE
:10242000B44207D0294E9036B44203D0274EA83686
:10243000B44215D190F85C603F2406F01F06B4400A
:10244000AC600468256825F4802525602EE09A603C
:102450000068C160BDE8F08F99600068C260F9E76C
:102460001B4EB4421BD01A4E1436B44217D0184E2D
:102470002836B44213D0164E3C36B4420FD0144E18
:102480005036B4420BD0124E6436B44207D0104ED0
:102490007836B44203D00E4E8C36B442DAD190F87E
:1024A0005C60012406F01F06B4406C600468636041
:1024B0008368402B0368CFD1C9E7000010000240B9
:1024C00088000240A0000240B80002401004024010
:1024D00008540258704772B6FEE70000F8B50027AE
:1024E000044615460E46009790F8500001280BD080
:1024F000012084F850002046FFF734FD0100606D94
:1025000004D040F010002DE00220F8BD20F48850E7
:1025100040F002006065206806F4803205F08043D8
:10252000134D1A4383682B401A4342F000428260E5
:10253000104A20680EE0009B5B1C0093934209D375
:10254000606D84F8507020F0020040F0100060656B
:102550000120F8BD8368DB0FEDD1606D20F0020033
:1025600040F001006065084684F85070F8BD000036
:10257000C0FFFE3F00F8C3252DE9F0470F4690F855
:1025800050109AB0044601294FF0000915D00026DA
:10259000DFF8F880012084F850001596169621681F
:1025A00041450ED13A4D0095284603F00FFD824675
:1025B000206803F00BFD60B10EE002201AB0BDE808
:1025C000F087606D84F8506040F020006065012065
:1025D000F4E7BAF1000F09D0616D4FF0010941F045
:1025E00020006065484684F85060E7E7206841466F
:1025F000884201D0A84201D1264800E0264840F692
:102600001F72D7F800C0254BBCF1000F23D0D0F8C3
:1026100008C0D7F804802CF4404C4CEA080CC0F8F1
:1026200008C0D4F800C08C4501D0AC4507D18968FA
:10263000AB6801F0010103F00103194302E099685E
:1026400001F001010029CDD1BD68396883682943B3
:102650009343194317E0876827F44047876027684A
:102660008F4201D0AF4207D18968AB6801F0010108
:1026700003F00103194302E0996801F00101002908
:10268000B0D1816891438160ACE700000020024036
:1026900000210240002302400063025800600258FB
:1026A0002DE9F84F4FF0000B0446E54E0D46CDF8EE
:1026B00000B05F4690F85000DFF888A3012808D0EA
:1026C0004FF0010984F85090206803F07BFC18B1AA
:1026D00069E10220BDE8F88F21682868CA69030310
:1026E00028D090FAA0F0B0FA80F000BF00F01F03ED
:1026F00009FA03F00243CA61D5E900124FF00C0C4D
:1027000020681F23C1F384610CEA921C02F01F02AF
:10271000604493409140026B9A430A4302632068ED
:1027200003F050FC8046206803F048FC58EA0000A3
:1027300003D07FE0C0F38460D8E72068AA682968E6
:1027400003F050FCC0490968B9EB117F06D121683C
:102750006869C968C1F38201490008E02068C1685E
:10276000C906C1686869F5D501F0100149088840BB
:10277000296904292ED022682B6802EB810103F01D
:10278000F8420B6E024303F0004010430866697E76
:1027900022682869012917D05FF0000102EB800050
:1027A000026E22F000420A430266287E21682A69EE
:1027B00001280CD000200B6902F01F02904023F486
:1027C000F04202430A6135E04FF00041E6E74FF482
:1027D0000060F0E720682978026E02F0F842B2EB60
:1027E000816F03D1016E21F00041016620682978D4
:1027F000426E02F0F842B2EB816F03D1416E21F0DC
:102800000041416620682978826E02F0F842B2EBFE
:10281000816F03D1816E21F00041816620682978A3
:10282000C26E02F0F842B2EB816F03D1C16E21F0AB
:102830000041C1662068816811F0010F76D150F81F
:10284000C02F95F80CC0814B29680CF0180C23FAA6
:102850000CF3C1F313080B4022EA08021A4302608A
:102860007B48E968814277D1286801031BD090FA40
:10287000A0F1B1FA81F1491C01F01F0109294FEAC9
:10288000003131D8002911D090FAA0F1B1FA81F1CC
:1028900001F1010101F01F0109FA01F209D100BFA4
:1028A000C0F3846109E0C0F38461E4E7C0F38461AC
:1028B000EEE790FAA0F1B1FA81F101F1010101F026
:1028C0001F0142EA816102D1C0F3846003E090FA03
:1028D000A0F0B0FA80F000F1010000F01F0000EB62
:1028E000400041EA005133E000290ED090FAA0F1F7
:1028F000B1FA81F101F1010101F01F0109FA01F2C0
:1029000006D100BFC0F3846106E0C0F38461F1E743
:1029100090FAA0F1B1FA81F101F1010101F01F017A
:1029200042EA816103D1C0F3846004E040E090FAA0
:10293000A0F0B0FA80F0474A00F1010000F01F005B
:1029400000EB400002EB005041EA000141F0007151
:10295000AA68206803F046FBD5F800C0BCF1000F60
:1029600026DA3D4B20683D49DFF8F490984201D0CB
:10297000B04201D10A4600E04A469268984202F00D
:10298000E07201D0B04209D19D68D6F8088005F008
:10299000010508F0010845EA080503E0DAF80850E7
:1029A00005F0010545B1606D012740F0200060652C
:1029B000384684F850B08DE62A4DAC451CD115023E
:1029C0001AD45045F4D1984202D0B04200D04946C2
:1029D0008B6842F4000023F0E07202438A602349CE
:1029E00021480968B1FBF0F04000801C00E0401E67
:1029F00000900028FBD1DBE71D4DAC450CD1D50183
:102A00000AD45045D4D1984202D0B04200D04946B1
:102A10008B6842F080700EE0164DAC45C8D155026F
:102A2000C6D45045C4D1984202D0B04200D04946E5
:102A30008B6842F4800023F0E07202438A60B7E7BB
:102A400000210240006002580010005CFFFF0F00F0
:102A50000000FF47000020FE00200240002302404B
:102A600000630258000084CB400D030020000024C6
:102A7000000052C70000B8CF0649074A88424FF00D
:102A8000010101D111707047024B64339842FAD1B1
:102A9000517070477400002408000024704770478C
:102AA000F8B54FF0000604003546009602D0606D80
:102AB00010B107E00120F8BD204600F005F9A66539
:102AC00084F8506020688168C1F3407119B1816851
:102AD000704A1140816020688168C1F3007181B93A
:102AE00081686D4A114041F0805181606C496B48AA
:102AF0000968B1FBF0F0401C00E0401E0090002887
:102B0000FBD120688168C1F3007141B9616D012575
:102B100041F010016165A16D41F00101A16503F073
:102B200051FA616DC90600D420B1606D012540F0F5
:102B3000100093E0606D20F4807040F0020060654A
:102B40002068816811F0010F1FD1564A564B904200
:102B500001D0984207D191689E6801F0010106F00A
:102B60000106314303E05149896801F0010161B96F
:102B7000904201D0984201D14D4800E04D48826812
:102B8000616822F47C120A43826001F067FB41F223
:102B90000301884202D9A06810280CD0617D227FF1
:102BA000A368206B490341EA024118430843217F8F
:102BB00001290CD010E0607D227F216B400340EAA8
:102BC000024241F01000104340F00C00EFE7218C6E
:102BD000394A02EB41410843616A29B1A26A01F412
:102BE0007871014342EA01002168344BCA681A40F7
:102BF0000243CA60206803F0E5F90646206803F046
:102C0000DDF930431DD1216844F20303267DE26AD9
:102C1000C86842EA863298431043C86094F8380086
:102C200001281ED02068016921F00101016120689E
:102C3000626B016921F07041114301612046FFF789
:102C400055F8E068012820681CD0016B21F00F01C5
:102C50000163606D20F0020040F0010060652846CD
:102C6000F8BD2068A28F164FD4E9101C154E07EB53
:102C70000247A36C026941EA0C013B43324019430D
:102C80001143D3E7A269016B521E21F00F011143DA
:102C9000DEE70000C0FFFF5FC0FFFF7F400D0300C5
:102CA0002000002400200240002102400060025861
:102CB00000230240006302580000FEFF03C0F0FF43
:102CC0000100FFFF1EF800FC2DE9F04786B08046AA
:102CD00014216846FDF76FFC4FF48066414AD8F82E
:102CE000001000253E480324B70091424FF480496C
:102CF0004FF4807A3DD13A4908390A6842F02002FF
:102D00000A60096801F020010591016841F00101A4
:102D10000160016801F001010591016841F00201C3
:102D200001600068694600F00200059079208DE896
:102D300031002D4801F07CF9009469462B48CDE91B
:102D4000014501F075F92A4C09232A4A28482260D6
:102D50004FF44032C4E901350C3484E8E006C4E99C
:102D6000052534E0C8F84C40C4F8388006B0BDE80A
:102D7000F087214A9142F9D1016841F080710160E8
:102D8000016801F080710591016841F00401016062
:102D90000068694600F00400059001208DE83100CC
:102DA000164801F045F94FF08060014602F072FFCD
:102DB0004FF00060014602F06DFF0D4C1048783472
:102DC000112123C4A4F10C0084E8E00665610C3CE9
:102DD00000F0FEFD0028C5D0FFF77DFBC2E7000034
:102DE000E04402580020024000000258000402584B
:102DF0003C01002410000240006002580008025804
:102E0000085402582DE9F047384E044600689146B0
:102E1000DFF8DC808A46B04201D0404501D1354917
:102E200000E03549896801F01F0503F0CBF8002860
:102E300059D194F85000012855D001204FF00007D7
:102E400084F8500025B1052D02D0092D00D003E0F3
:102E50002046FFF7BFF818B184F85070BDE8F0873E
:102E6000616D40F6016320689943404541F48071EB
:102E7000616500D00646864200D01DB9606D20F421
:102E800080106065606DC00404D5A06D20F0060060
:102E9000A06500E0A7651C20E16C184ACA63E26CDB
:102EA00017491164E26C1749D1642168086084F8FD
:102EB00050702068416841F0100141602068E16A6B
:102EC000C26822F003020A43C26021684B46E06CEC
:102ED0005246403100F05EFF21680B4B8A681A4071
:102EE000121D8A60BAE70220B8E700000020024005
:102EF000002102400023024000630258D91E00084E
:102F00005B1F0008411F0008C0FFFF7F70B504462B
:102F100090F85000012809D0012084F850000321C6
:102F20002046FEF767FF050002D027E0022070BDB3
:102F30002068C16821F00301C160E06C90F8351091
:102F4000022907D100F020F8050003D0606D40F0A1
:102F5000400060652068416821F010014160204612
:102F600015B1FEF7FFFF09E0FEF7FCFF050005D1F4
:102F7000606D20F4885040F001006065002084F806
:102F80005000284670BD00002DE9F84F044601F0BE
:102F90006BF900903CB194F83500022806D08021EE
:102FA00061650020E4E00120BDE8F88FC74DC74E01
:102FB000C649183520683036DFF81483DFF81493DB
:102FC0008842DFF814A3DFF814B32ED0A8422CD027
:102FD000B0422AD0404528D0484526D0504524D07C
:102FE000584522D0BD4A183290421ED0BC4A904269
:102FF0001BD0BB4A1832904217D0B94A30329042A7
:1030000013D0B74A483290420FD0B54A603290424E
:103010000BD0B34A7832904207D0B14A90329042F6
:1030200003D0AF4AA832904209D1026822F01E02B2
:1030300002602068426922F08002426103E0026877
:1030400022F00E02026027688F4238464DD0A84217
:103050004BD0B04249D0404547D0484545D0504577
:1030600043D0584541D09D4A183290423DD09C4AA9
:1030700090423AD09A4A1832904236D0984A30322A
:10308000904232D0964A483290422ED0944A6032D2
:1030900090422AD0924A7832904226D0904A90327A
:1030A000904222D08E4AA83290421ED08D4A904241
:1030B0001BD08C4A1432904217D08A4A2832904250
:1030C00013D0884A3C3290420FD0864A5032904208
:1030D0000BD0844A6432904207D0824A78329042C0
:1030E00003D0804A8C32974204D1206E026822F4C9
:1030F0008072026075492068884228D0A84226D094
:10310000B04224D0404522D0484520D050451ED062
:1031100058451CD071491831884218D070498842EE
:1031200015D06F491831884211D06D49303188422D
:103130000DD06B494831884209D0694960318842D5
:1031400005D067497831884201D0654990310168DE
:1031500021F0010101600EE001F086F80099401AAB
:10316000052808D9202262650321002084F8351043
:1031700084F8340017E73868C007EDD1534A0121BD
:10318000206890422ED0A8422CD0B0422AD0404590
:1031900028D0484526D0504524D0584522D04F4B02
:1031A000183398421ED04E4B98421BD04C4B1833CC
:1031B000984217D04A4B3033984213D0484B48338B
:1031C00098420FD0464B603398420BD0444B783333
:1031D000984207D0424B9033984203D0404BA833DB
:1031E000984208D194F85C703F23A06D07F01F0748
:1031F000BB40836007E094F85C30A06D03F01F03D0
:1032000001FA03F34360206890424DD0A8424BD0AE
:10321000B04249D0404547D0484545D0504543D0BD
:10322000584541D02D4A183290423DD02C4A904208
:103230003AD02B4A1832904236D0294A3032904246
:1032400032D0274A483290422ED0254A60329042EE
:103250002AD0234A7832904226D0214A9032904296
:1032600022D01F4AA83290421ED01E4A90421BD044
:103270001C4A1432904217D01A4A2832904213D076
:10328000184A3C3290420FD0164A503290420BD02E
:10329000144A6432904207D0124A7832904203D0E6
:1032A000104A8C3290420BD1D4E919024260E06E90
:1032B00030B1026822F480720260D4E91C024260DC
:1032C000002084F8351084F834006DE610000240C8
:1032D000580002407000024088000240A0000240F6
:1032E00010040240085402582DE9FC5F0446F74ED2
:1032F0000020DFF8D88300904FF41652F44808F10C
:103300001808A56DDFF8C493DFF8C0A3016809F1C0
:10331000300920680AF1480AB1FBF2F1B04201918C
:103320002F68D5F800C0DFF8ACB335D041468842ED
:1033300032D0484530D050452ED058452CD0E549A4
:103340001831884228D0E3493031884224D0E149FD
:103350004831884220D0E04988421DD0DE491831EA
:10336000884219D0DC493031884215D0DA494831D9
:10337000884211D0DFF860E30EF1600E70450BD08B
:10338000D54A7832904207D0D34B9033984203D03D
:10339000D149A83188427DD194F85C20082102F0FF
:1033A0001F0201FA02F23A424AD0B04232D04045FE
:1033B00030D048452ED050452CD058452AD0C54A4B
:1033C0001832904226D0C34A3032904222D0C14AAD
:1033D000483290421ED0C04A90421BD0BE4A18329A
:1033E000904217D0BC4A3032904213D0BA4A483289
:1033F00090420FD0B84A603290420BD0B64A783231
:10340000904207D0B44A9032904203D0B24AA832D8
:10341000904203D1026802F0040202E0026802F066
:1034200008026AB1026822F00402026094F85C00AB
:1034300000F01F008140A960606D40F001006065F0
:1034400094F85C00012100F01F008140394240D017
:103450002068B04234D0404532D0484530D0504545
:103460002ED058452CD09B4A1832904228D0994AE9
:103470003032904224D0974A4832904220D0964A27
:1034800090421DD0944A1832904219D0924A30325C
:10349000904200E0AFE113D08F4A483290420FD003
:1034A0008D4A603290420BD08B4A7832904207D0DE
:1034B000894A9032904203D0874AA83290427DD107
:1034C000406910F0800F04D0A960606D40F00200E8
:1034D000606594F85C00042100F01F0081403942CF
:1034E0003ED02068B04232D0404530D048452ED042
:1034F00050452CD058452AD0764A1832904226D0D2
:10350000744A3032904222D0724A483290421ED0E1
:10351000714A90421BD0704A1832904217D06E4ABE
:103520003032904213D06C4A483290420FD06A4AEF
:10353000603290420BD0684A7832904207D0664A97
:103540009032904203D0644AA83290424ED1006833
:1035500010F0020F04D0A960606D40F004006065B7
:1035600094F85C00102100F01F008140394258D0CF
:103570002068B04234D0404532D0484530D0504524
:103580002ED058452CD0534A1832904228D0514A58
:103590003032904224D04F4A4832904220D04E4A96
:1035A00090421DD04C4A1832904219D04A4A3032CB
:1035B000904215D0484A4832904200E014E00FD0C3
:1035C000454A603290420BD0434A7832904207D04D
:1035D000414A9032904203D03F4AA832904207D1EC
:1035E000006800F0080006E0006872E70068B7E7CE
:1035F000006800F00400A0B1A960206801684903D8
:1036000004D50068000308D5A16C07E00168C9056E
:1036100003D4016821F008010160216C09B1204642
:10362000884794F85C00202100F01F008140394257
:1036300079D02068B04232D0404530D048452ED0B5
:1036400050452CD058452AD0224A1832904226D0D4
:10365000204A3032904222D01E4A483290421ED038
:103660001D4A90421BD01C4A1832904217D01A4A69
:103670003032904213D0184A483290420FD0164A46
:10368000603290420BD0144A7832904207D0124AEE
:103690009032904203D0104AA832904203D1006881
:1036A00000F0100002E0006800F00200B0B3A96072
:1036B00094F835000428206801680FD049037ED5AE
:1036C000006800032BD4616C2AE000001000024067
:1036D00020000024700002401004024021F0160176
:1036E00001602068416921F080014161206C08B9C6
:1036F000A06C20B12068016821F00801016094F8F5
:103700005C303F21012003F01F0300229940A96093
:1037100084F8350084F83420216D65E003E0E16B26
:1037200009B120468847606D00287DD0606DC007D4
:1037300059D02068042184F83510B0422BD0404580
:1037400029D0484527D0504525D0584523D09D49FC
:10375000884220D09B49183188421CD09949303189
:10376000884218D09849884215D097491831884224
:1037700011D09549303188420DD093494831884263
:1037800009D091496031884205D08F49783188420B
:1037900001D08D499031016821F00101016020685C
:1037A0000099019A491C0091914202D80168C90709
:1037B000F6D10068C00710D003200FE0FFE70168D2
:1037C000C905ACD403680121002223F01003036073
:1037D00084F8351084F83420A1E7012084F83500FE
:1037E000002084F83400E16C00291DD002B020468E
:1037F000BDE8F05F0847754988421DD07349143110
:10380000884219D071492831884215D06F493C311E
:10381000884211D06D49503188420DD06B496431D6
:10382000884209D0694900E084E07831884203D0B9
:1038300066498C3188427DD194F85C800427016808
:1038400008F01F0807FA08F717EA0C0F009746D090
:103850004F0744D500980F04686003D5C8033CD4D3
:10386000A16CC1E7880638D42068B0422DD05549F4
:103870006039884229D0484527D0504525D0584541
:1038800023D05049884220D04E49183188421CD05C
:103890004C493031884218D04B49884215D04A49AA
:1038A0001831884211D04849303188420DD04649FC
:1038B0004831884209D0704507D0904205D09842DF
:1038C00003D04149A831884203D1016821F00801A1
:1038D00002E0016821F004010160216C84E7022705
:1038E00007FA08F717EA0C0F00974ED08F074CD550
:1038F00000980F04686003D5C80344D4616C73E773
:10390000880640D42068B0422FD02E4960398842C2
:103910002BD0484529D0504527D0584525D0294996
:10392000884222D02749183188421ED0254930319B
:10393000884200E044E018D02349884215D022494B
:103940001831884211D02049303188420DD01E49AB
:103950004831884209D0704507D0904205D098423E
:1039600003D01949A831884203D1016821F014011C
:1039700002E0016821F00A010160012184F835109C
:10398000002084F83400E16B2EE7082202FA08F2E6
:1039900012EA0C0F14D0090712D5016821F00E01AC
:1039A000016094F85C100120002201F01F0100FA70
:1039B00001F16960606584F8350084F8342012E70D
:1039C000BDE8FC9F880002401004024008540258E1
:1039D0002DE9F05F044600F047FC002C07467DD03F
:1039E000E34E022120684FF00308DFF888934FF080
:1039F0000005DFF884A3B042DFF880B334D0DC4A9E
:103A00001832904230D048452ED050452CD05845E1
:103A10002AD0DA4A1832904226D0D84A3032904220
:103A200022D0D64A483290421ED0D54A90421BD06E
:103A3000D34A1832904217D0D14A3032904213D034
:103A4000CF4A483290420FD0CD4A603290420BD0DC
:103A5000CB4A7832904207D0C94A9032904203D084
:103A6000C74AA83290427DD184F83510B04284F81C
:103A700034502ED0BE49183188422AD0484528D02B
:103A8000504526D0584524D0BC491831884220D012
:103A9000BA49303188421CD0B8494831884218D0E0
:103AA000B749884215D0B6491831884211D0B44977
:103AB000303188420DD0B2494831884209D0B049EE
:103AC0006031884205D0AE497831884201D0AC4996
:103AD0009031016821F00101016008E027E100BF99
:103AE00000F0C2FBC01B052801D920211CE1206881
:103AF0000068C007F4D104F108002168D4E9053C4E
:103B00008E4685C809681043D4E907281F43636AB5
:103B100038439C4F40EA0C001043394040EA08000B
:103B2000042B40EA010003D1D4E90B1211430843EE
:103B3000954909686FF30F01B1F1005F0FD3616818
:103B4000A1F12902052A08D9163A032A05D9083A0B
:103B5000012A02D94F39032901D840F48010CEF848
:103B6000000000E023E02068676A4069042F20F02D
:103B7000070047EA00070DD1D4E90A01074349B11C
:103B80002046FEF76DFB28B140206065012184F8D6
:103B90003510CCE0206847612046FEF77FFA94F8A4
:103BA0005C203F2102F01F029140816054E0774A7F
:103BB00090421BD0754B1433984217D0734B283367
:103BC000984213D0714B3C3398420FD06F4B503317
:103BD00098420BD06D4B6433984207D06B4B7833CF
:103BE000984203D0694B8C3398427DD184F83510CC
:103BF00084F83450664B0168A26801EA030E402A3B
:103C000073D0802A72D00022D4E90378D4E9053138
:103C100042EAD70242EAD8085C4AD4E9077C48EA7B
:103C2000D30848EAD10141EAD701524241EA1C11C6
:103C3000142341EA0E01016020681044B0FBF3F048
:103C40008000E0652046FEF729FA94F85C20012107
:103C500002F01F02914041602068B04257D04449B1
:103C60001831884253D0484551D050454FD058451F
:103C70004DD042491831884249D0404930318842BC
:103C800045D03E494831884241D03D4988423ED0E6
:103C90003B49183188423AD039493031884236D0D0
:103CA00037494831884232D03549603188422ED078
:103CB0003349783188422AD031499031884226D020
:103CC0002F49A831884222D0304988421FD02F493D
:103CD000143188421BD02D492831884217D02B49F6
:103CE0003C31884213D002E01DE017E018E027497C
:103CF000503188420BD025496431884207D023498E
:103D00007831884203D021498C31884229D120461C
:103D1000FEF71EFAA06880280CD00CE0102273E792
:103D20004FF4804270E74021616584F835800120BE
:103D3000BDE8F09F6560216E20790860D4E9190123
:103D400041606068401E072808D82046FEF74EFAFA
:103D5000E06E0560D4E91C01416002E0E56625677C
:103D600065670120656584F835000020E0E7000004
:103D70001000024040000240580002407000024023
:103D8000100402403F8010FE0010005C08540258EE
:103D90000F00FEFF2DE9F84F04008C464FF00000A5
:103DA000009014D094F83400012812D094F83550C3
:103DB0000120002184F83400012D0CD0C002606580
:103DC0000120009084F834100098BDE8F88F01209D
:103DD000FBE70220F9E78C4D0226206884F8356065
:103DE000A8428A4D61658A4E8A4FDFF82C82DFF83F
:103DF0002C92DFF82CA2DFF82CB226D0A84224D0D7
:103E0000B04222D0B84220D040451ED048451CD0F8
:103E100050451AD0584518D08349884215D0824958
:103E20001831884211D08049303188420DD07E4906
:103E30004831884209D07C496031884205D07A49AE
:103E40007831884201D078499031016821F0010130
:103E5000016061462046FEF72DFA6B4920688842D2
:103E60002CD0A8422AD0B04228D0B84226D0404513
:103E700024D0484522D0504520D058451ED06A4A0B
:103E800090421BD0684A1832904217D0664A3032AE
:103E9000904213D0644A483290420FD0624A603256
:103EA00090420BD0604A7832904207D05E4A9032FE
:103EB000904203D05C4AA83290420CD1026822F0B2
:103EC0001E0242F016020260206C88B1206802686F
:103ED00042F008020BE0026822F00E0242F00A02F1
:103EE0000260206C20B12068026842F00402026087
:103EF000206888424BD0A84249D0B04247D0B8424F
:103F000045D0404543D0484541D050453FD0584525
:103F10003DD0454A90423AD0434A1832904236D07A
:103F2000414A3032904232D03F4A483290422ED0FD
:103F30003D4A603290422AD03B4A7832904226D0A5
:103F4000394A9032904222D0374AA83290421ED04D
:103F5000364A90421BD0354A1432904217D0334A29
:103F60002832904213D0314A3C3290420FD02F4A2F
:103F7000503290420BD02D4A6432904207D02B4AE7
:103F80007832904203D0294A8C3290420DD1206E73
:103F90000268D20303D5026842F480720260E06EC8
:103FA00018B1026842F4807202602068884226D00C
:103FB000A84224D0B04222D0B84220D040451ED0E2
:103FC00048451CD050451AD0584518D0164988424B
:103FD00015D015491831884211D013493031884223
:103FE0000DD011494831884209D00F4960318842CB
:103FF00005D00D497831884201D00B4990310168D4
:1040000041F001010160DFE610000240280002409B
:104010004000024058000240700002408800024008
:10402000A0000240B80002401004024008540258A8
:104030002DE9F84F03247D4D00234FF001094FF087
:10404000B04B4FF00F0AE9E009FA03F73A4076D097
:104050000E7906F00306012E01D0022E18D1D0F8F9
:1040600008C04FEA430ECE6804FA0EF82CEA080C9A
:1040700006FA0EF646EA0C068660D0F804C00E7901
:104080002CEA070CC6F300169E4046EA0C06466072
:104090000E79F643B6070BD0C6684FEA43088F681F
:1040A00004FA08FC26EA0C0607FA08F73743C7604B
:1040B0000E7906F00306022E12D1DE080F694FEAD0
:1040C000437C00EB8606B646366A4FEADC6C0AFA99
:1040D0000CF807FA0CF726EA08063743CEF82070EA
:1040E0000F7906684FEA430807F0030704FA08FC53
:1040F00007FA08F726EA0C06374307604E6816F4FD
:10410000403F1CD04A4E376847F002073760366898
:104110009F0706F00206009623F0030606F1B0465C
:10412000B6463F0FD6F80864DFF808810AFA07FCA4
:10413000404526EA0C0603D14FF0000C41E06CE04C
:10414000DFF8F4C0604502D14FF0010C39E0DFF830
:10415000ECC0604502D14FF0020C32E0DFF8E0C065
:10416000604502D14FF0030C2BE0DFF8D8C060456A
:1041700002D14FF0040C24E0DFF8CCC0604502D13E
:104180004FF0050C1DE0DFF8C4C0604502D14FF0D0
:10419000060C16E0DFF8B8C0604502D14FF0070CFE
:1041A0000FE0DFF8B0C0604502D14FF0080C08E026
:1041B000DFF8A4C0604502D14FF0090C01E04FF0D8
:1041C0000A0C0CFA07FC4CEA060CCEF808C44F683F
:1041D000DBF80060FF0226EA020600D516435F46C0
:1041E000CBF80060D1F804C0DBF804605FEA8C2CE7
:1041F00026EA020600D516437E606E684F6826EAFE
:104200000206BF0300D516436E602E684F6826EA8B
:104210000206FF0300D516432E605B1C0A6832FAC3
:1042200003F67FF411AFBDE8F88F0000800000585E
:10423000F4440258000002580004025800080258D2
:10424000000C0258001002580014025800180258BE
:10425000001C02580020025800240258014800683F
:10426000000C70470010005C014880687047000037
:10427000140000240248816802781144816070476C
:1042800014000024032010B500F086F801F0CEF9E8
:104290000F4A104914681368C4F3032203F00F0394
:1042A0008A5CC95C02F01F0201F01F01D0400A4A7B
:1042B00020FA01F11160094908600F2000F010F8A0
:1042C00008B1012010BD00F02BF8002010BD000047
:1042D00018440258667600082400002420000024B8
:1042E00070B50D4D04462878A0B14FF47A71B1FB3A
:1042F000F0F00A490968B1FBF0F001F0D3FC48B9CD
:10430000102C07D200222146501E00F025F8002074
:104310006C6070BD012070BD1400002420000024DA
:10432000054808B5016841F002010160006800F02D
:104330000200009008BD0000F4440258002809DB88
:10434000410900F01F028900012001F1E0219040A5
:10435000C1F80001704700000E4BF0B41B680D4619
:10436000C3F30223C3F10706042E00D90426191D46
:10437000072901D2002300E0DB1E012404FA06F124
:104380009C40491E2940641E994014402143F0BCC2
:1043900002F06EBF0CED00E0064900F0070210B518
:1043A0004FF6FF040868044B204040EA02201843FF
:1043B000086010BD0CED00E00000FA05134970B56F
:1043C0000A68D243520705D5096801F00701814206
:1043D00013D118E00A6822F0070202430A60FFF7CF
:1043E00043FF0A4D4FF47A760446083D07E000BFCC
:1043F000FFF73AFF001BB04201D9012070BD2868C9
:10440000C0438004F4D4002070BD00000C48025862
:1044100010B501F0C5F805490968054AC1F3021154
:10442000515C01F01F01C84010BD0000204402583B
:10443000667600084A4930B5494C0B1D0A680C34B1
:1044400009681D68246802F0030305F00102C1F346
:104450000511C4F3CC04002914FB02F200EE102A6B
:10446000F8EE400A76D0414A9FED3E1ADFED3E1A43
:10447000B7EE000A23B1012B5AD0022B18D15CE011
:10448000374C283C23689B0612D5394B246801EE33
:10449000901A1168C4F3C104F8EE612AE34001EEFA
:1044A000903AC1F30801F8EE611A81EEA22A07E002
:1044B00002EE101A1168F8EE422A81EEA22A45E0B7
:1044C00001EE901A1168F8EE611A40EE811A71EE51
:1044D000800A62EE200AC1F3462101EE101AB8EEFE
:1044E000411A31EE001AC0EE811ABCEEE11A80EDDD
:1044F000001A1168C1F3064101EE101AB8EE411A14
:1045000031EE001AC0EE811ABCEEE11A80ED011AFC
:104510001168C1F3066101EE101AB8EE411A31EECE
:10452000000A80EE801ABCEEC10A80ED020A30BD9E
:1045300001EE901ADFED0F2A03E001EE901ADFED95
:104540000E2A1168F8EE611A82EEA12AC1F3080161
:10455000B6E7FFE7002101604160816030BD0000E7
:1045600028440258000000390024744C304402589A
:104570000090D0030024744A20BCBE4B494930B59A
:10458000484C0B1D0A68143409681D68246802F041
:104590000303C5F30012C1F30531C4F3CC040029B1
:1045A00014FB02F200EE102AF8EE400A75D03F4AE2
:1045B0009FED3D1AB7EE000A6BB1DFED3D1A012BFE
:1045C00001D0022B64D002EE101A1168F8EE422AD4
:1045D00081EEA22A21E0334C283C23689B0612D5A9
:1045E000344B246801EE901A1168C4F3C104F8EE4C
:1045F000612AE34001EE903AC1F30801F8EE611A36
:1046000081EEA22A0BE001EE901ADFED2B2A00BF0B
:10461000F8EE611A116882EEA12AC1F3080101EED9
:10462000901A1168F8EE611A40EE811A71EE800A54
:1046300062EE200AC1F3462101EE101AB8EE411ACB
:1046400031EE001AC0EE811ABCEEE11A80ED001ABC
:104650001168C1F3064101EE101AB8EE411A31EEAD
:10466000001AC0EE811ABCEEE11A80ED011A116841
:10467000C1F3066101EE101AB8EE411A31EE000ADC
:1046800080EE801ABCEEC10A80ED020A30BD04E063
:1046900001EE901ADFED092ABAE7002101604160BE
:1046A0008160F3E72844025800000039384402587A
:1046B0000024744A0090D0030024744C20BCBE4BEC
:1046C000494930B5484C0B1D0A681C3409681D68FF
:1046D000246802F00303C5F30022C1F30551C4F3BB
:1046E000CC04002914FB02F200EE102AF8EE400A76
:1046F00075D03F4A9FED3D1AB7EE000A6BB1DFED72
:104700003D1A012B01D0022B64D002EE101A116861
:10471000F8EE422A81EEA22A21E0334C283C23689D
:104720009B0612D5344B246801EE901A1168C4F32D
:10473000C104F8EE612AE34001EE903AC1F30801AA
:10474000F8EE611A81EEA22A0BE001EE901ADFED7D
:104750002B2A00BFF8EE611A116882EEA12AC1F37C
:10476000080101EE901A1168F8EE611A40EE811A04
:1047700071EE800A62EE200AC1F3462101EE101AA2
:10478000B8EE411A31EE001AC0EE811ABCEEE11A01
:1047900080ED001A1168C1F3064101EE101AB8EE5F
:1047A000411A31EE001AC0EE811ABCEEE11A80ED1A
:1047B000011A1168C1F3066101EE101AB8EE411A30
:1047C00031EE000A80EE801ABCEEC10A80ED020ACA
:1047D00030BD04E001EE901ADFED092ABAE70021AE
:1047E000016041608160F3E728440258000000390D
:1047F000404402580024744A0090D0030024744CB2
:1048000020BCBE4B2DE9F04F944A4FF48079DFF87D
:1048100048824845924B89B0924EA8F104059249CE
:104820004FF080574FEA22144FF0005C2ED1D8F899
:10483000000000F00700052824D2DFE800F09BB557
:104840008425AA0003A8FFF7F5FD049809B0BDE888
:10485000F08F6846FFF792FE0098F7E706A8FFF78B
:104860002FFF0698F2E70868C0F3C10022FA00F0B3
:10487000ECE70A68D2057CD5B8427AD12046E5E754
:104880001846E3E70020E1E73046DFE7B0F5007FB8
:104890001AD0DFF8D891B0F5806F26D0B0F5006F50
:1048A00037D04FF4805A50454FF4804B4FD1D8F851
:1048B000000000F4E040B0F5005F44D03DDC00288B
:1048C00058D05045DED16FE0D8F8000000F4E07019
:1048D000802838D004DC00284CD04028D2D163E0B6
:1048E000C028D1D04845CDD153E0D9F8000000F41C
:1048F0006000B0F5800F26D004DCD8B3B0F5001FFF
:10490000C0D151E0B0F5C00FBED0B0F5000FB9D1A5
:104910003FE0D9F8000000F0E060B0F1007F12D075
:1049200004DC38B3B0F1807FACD13DE0B0F1407F22
:10493000AAD0B0F1806FA5D12BE0B0F5405FA3D035
:1049400058459FD125E0086880009BD586E7B0F5E3
:10495000002F4FF4803612D0B04237D1286810F4BF
:10496000803075D0B0428DD1086800018AD5684684
:1049700001E025E06CE0FFF701FE029866E7D9F858
:10498000000010F440300FD0B04211D0B0F5003F1D
:1049900098D128680D6800F040506D077FF569AF29
:1049A00000287FF466AF5EE708680001CDD550E7C8
:1049B00008688000C9D506A8FFF782FE089845E779
:1049C00009688903C1D5604588D159E758452BD17D
:1049D000D9F8000000F0E040B0F1405F1CD00CDCE2
:1049E00090B1B8422CD060458AD108688000ACD51F
:1049F00006A8FFF765FE079828E7B0F1804F0FD0B3
:104A0000B0F1A04F90D11FE0FFF702FD1EE768460E
:104A1000FFF7B4FD019819E70868400795D522E72C
:104A20000868C00591D529E7B0F5004F89D1D8F8BD
:104A3000000010F0405007D0B84209D0604592D134
:104A400008680001E3D41DE708688003FBD517E779
:104A500008688001F7D5F5E6504402580090D0036D
:104A600040787D010080BB00004402585844025841
:104A70002DE9FC5F044650F8241B002500902E46CB
:104A80000801FE4FDFF8F8831DD5606E50B1B0F518
:104A9000801F0CD0B0F5001F0ED0B0F5401F1DD008
:104AA00001250FE0386840F40030386016E002213C
:104AB000201D01F041FC03E00098022101F0CCFC34
:104AC00005000BD02E462088C00523D5606D052833
:104AD0001ED2DFE800F00C11161B1B00626ED8F826
:104AE000001021F440111143C8F80010EBE73868BA
:104AF00040F40030386009E00021201D01F01CFC6A
:104B000003E00098002101F0A7FC05466DB100E02C
:104B100001252E462088800528D5A06D80281ED02E
:104B20000CDC90B140280ED114E0626DD8F8001072
:104B300021F007011143C8F80010EBE7C02813D09B
:104B4000B0F5807F10D001250FE0386840F40030C8
:104B5000386009E00021201D01F0EEFB03E0009821
:104B6000002101F079FC054695B12E462088DFF83A
:104B70001093400509F108092CD5D4F8A400B0F52C
:104B8000800F20D00DDCA0B1B0F5001F0FD115E0D3
:104B9000A26DD8F8001021F4E0711143C8F800109C
:104BA000E4E7B0F5C00F13D0B0F5000F10D0012529
:104BB0000FE0386840F40030386009E00021201D23
:104BC00001F0BAFB03E00098002101F045FC054626
:104BD00075B12E46208800052DD5D4F8A800B0F177
:104BE000007F21D00EDCA8B1B0F1807F10D116E09B
:104BF000D4F8A420D9F8001021F460011143C9F8B9
:104C00000010E7E7B0F1407F13D0B0F1806F10D013
:104C100001250FE0386840F40030386009E00021D9
:104C2000201D01F089FB03E00098002101F014FC35
:104C300005466DB12E46206880011FD5A06CD8B105
:104C400010280FD0202812D0302815D0012514E0CC
:104C5000D4F8A820D9F8001021F0E0611143C9F878
:104C60000010E8E7386840F40030386004E00221C2
:104C7000201D01F061FB05466DB12E462088C00461
:104C80002BD5E06DB0F5005F20D00DDCA0B1B0F504
:104C9000805F0FD115E07A48A26C001F016821F0F7
:104CA000300111430160E9E7B0F5405F13D0B0F582
:104CB000804F10D001250FE0386840F40030386094
:104CC00009E00021201D01F037FB03E000980021DE
:104CD00001F0C2FB054685B12E462088800429D507
:104CE000206EB0F5403F23D010DC08B3B0F5803F14
:104CF00014D0B0F5003F0FD115E0E26DD8F80010E8
:104D000021F4E0411143C8F80010E6E7B0F5802F28
:104D10000ED0B0F5A02F0BD001250AE00121201DF7
:104D200001F00AFB03E00098012101F095FB054624
:104D30008DB12E46208840042AD5D4F8AC00B0F1BD
:104D4000405F23D010DC08B3B0F1805F14D0B0F125
:104D5000005F0FD115E0226ED8F8001021F4E02199
:104D60001143C8F80010E5E7B0F1804F0ED0B0F164
:104D7000A04F0BD001250AE00121201D01F0DCFA33
:104D800003E00098012101F067FB05466DB12E4656
:104D9000208800041FD5E06ED8B1B0F1805F0ED03E
:104DA000B0F1005F10D0012514E0D4F8AC20D9F8A0
:104DB000001021F0E0411143C9F80010E8E738681D
:104DC00040F40030386004E00121201D01F0B4FA05
:104DD00005466DB12E462068C0011ED5606CD0B16D
:104DE00001280ED0022811D0032814D0012513E089
:104DF000E26ED8F8001021F040511143C8F80010BD
:104E0000E9E7386840F40030386004E00221201DF2
:104E100001F092FA054685B12E462068DFF85CB0B5
:104E20004002ABF11C0B57D51648016841F4807164
:104E30000160FFF719FA82460EE01148626C001F0C
:104E4000016821F0030111430160E6E7FFF70CFA66
:104E5000A0EB0A0064283DD80A480068C005F5D5D3
:104E60007DBBDFF81CA0B4F8B0200AF1200ADAF804
:104E7000001002F4407001F4407105E02C44025827
:104E80005044025800480258814211D0DAF800100C
:104E9000DAF8002021F4407142F48032CAF8002090
:104EA000DAF8002022F48032CAF80020CAF8001094
:104EB000D4F8B000B0F5807F21D1FFF7D5F901908B
:104EC00019E008E0FFF7D0F90199411A41F2883062
:104ED000814210D903252E462078DFF844A4C0076C
:104EE0003DD0A06F182838D026DC80B3082829D000
:104EF000102825D12CE0DAF800008007E2D5D4F89C
:104F0000B010C1F30120032858460DD0016821F4E8
:104F10007C510160B4F8B020DAF80010C2F30B0243
:104F20001143CAF80010D7E7FE4A036802EA1112DB
:104F300023F47C511143ECE720280ED028280CD014
:104F400001250BE00121201D01F0F6F904E004E049
:104F50000098012101F080FA05465DB12E462078C7
:104F600080071ED5606F062819D2DFE800F0160C06
:104F700011161616A26FDAF8001021F0380111434D
:104F8000CAF80010EBE70121201D01F0D5F903E07C
:104F90000098012101F060FA054675B100E0012595
:104FA0002E46207840071FD5D4F89000062819D245
:104FB000DFE800F0160C11161616626FDAF8001012
:104FC00021F007011143CAF80010EAE70121201D72
:104FD00001F0B2F903E00098012101F03DFA054625
:104FE0009DB100E001252E46207880062BD5D4F80F
:104FF0008C00B0F1405F24D011DC10B3B0F1805FC1
:1050000015D0B0F1005F10D116E0D4F89020D9F897
:10501000001021F007011143C9F80010E4E7B0F1D6
:10502000804F0ED0B0F1A04F0BD001250AE0002137
:10503000201D01F081F903E00098022101F00CFA33
:1050400005468DB12E46207840062BD5D4F8980021
:10505000B0F5406F24D011DC10B3B0F5806F15D0DF
:10506000B0F5006F10D116E0D4F88C20DAF80010FB
:1050700021F0E0411143CAF80010E4E7B0F5805F89
:105080000ED0B0F5A05F0BD001250AE00021201D55
:1050900001F052F903E00098022101F0DDF9054624
:1050A0008DB12E46207800062BD5D4F89C00B0F5A3
:1050B000C04F24D011DC10B3B0F5005F15D0B0F5AF
:1050C000804F10D116E0D4F89820D9F8001021F4C0
:1050D000E0511143C9F80010E4E7B0F5004F0ED0DD
:1050E000B0F5204F0BD001250AE00021201D01F072
:1050F00023F903E00098022101F0AEF905464DB115
:105100002E46207800071ED5D4F88000B0F5805FC9
:105110000AD00FE0D4F89C20D9F8001021F46041A7
:105120001143C9F80010ECE70098022101F094F94E
:1051300000B10126D4F88020DAF8001021F44051A3
:105140001143CAF800102078C00613D5D4F8940093
:10515000B0F5807F05D10098022101F07DF900B102
:105160000126D4F89420D9F8001021F4407111439D
:10517000C9F800102068000316D5D4F8A00038B193
:10518000B0F5803F09D0B0F5003F0BD001250AE013
:105190000021201D01F0D0F803E00098022101F069
:1051A0005BF9054685B12E462068400322D5D4F828
:1051B0008400B0F5801F11D0B0F5001F13D0B0F5FA
:1051C000401F15D0012514E0D4F8A020D9F8001014
:1051D00021F440311143C9F80010E5E7386840F484
:1051E0000030386004E00098012101F035F90546EF
:1051F00055B12E462068C0031CD5E06C70B1B0F5E7
:10520000803F10D0012514E0D4F88420DAF8001093
:1052100021F440111143CAF80010EBE7386840F45C
:105220000030386004E00221201D01F085F80546B9
:10523000CDB12E462068800005D50098022101F0EE
:105240000BF900B10126206880031BD5E06FB8B1CF
:10525000B0F5807F10D0B0F5007F11D0B0F5407F61
:105260000ED001250DE02E48E26C0838016821F4CB
:10527000803111430160DDE7386840F40030386068
:10528000F5B32E462068C00207D5226FD8F800106B
:1052900021F000411143C8F800102068C00008D573
:1052A000D4F8B420DBF8001021F480411143CBF88E
:1052B00000102068800207D5A26ED8F8001021F0F7
:1052C00080711143C8F80010206840000CD5DBF84D
:1052D000001021F40041CBF80010DBF80010D4F8E6
:1052E000B8201143CBF800102068002807DA0C48DA
:1052F000226D0838016821F040511143016000E03F
:1053000014E02068000208D5D4F88820DAF80010EC
:1053100021F440011143CAF8001086B1012003E0D6
:1053200054440258CFFFFF00BDE8FC9FE26FDAF85B
:10533000001021F440711143CAF80010A2E70020C8
:10534000EDE700002DE9F05F04000F467ED0DFF8A6
:105350003882D8F8000000F00F00B8420CD2D8F81C
:10536000001021F00F013943C8F80010D8F80000F0
:1053700000F00F00B84269D12078844D40070AD56B
:105380002069296801F07001884204D9296821F058
:1053900070010143296020787C4E361D00070AD534
:1053A0006069316801F07001884204D9316821F0E8
:1053B0007001014331602078C0060AD5A0693168C8
:1053C00001F4E061884204D9316821F4E0610143CD
:1053D00031602078DFF8B4B180060BF1080B0CD5F2
:1053E000E1695846DBF8002002F07002914204D9CE
:1053F000026822F070020A430260207880070AD512
:10540000E068296801F00F01884204D9296821F079
:105410000F01014329602078C0073ED05B49A26894
:105420002868183920F470601043286060680228EA
:1054300018D0032819D00968012819D04907002974
:105440004ADADFF848A1AAF1080A00E044E0DAF8F5
:10545000002022F007020243CAF80020FEF704FFF2
:10546000814612E009688903E9E709688901E6E7EE
:10547000C905E4E7FEF7F8FEA0EB090141F2883028
:10548000814202D90320BDE8F09F6168DAF800008C
:1054900000F03800B0EBC10FECD1207880070AD5BE
:1054A000E068296801F00F01884204D2296821F0E0
:1054B0000F0101432960D8F80010404601F00F01A8
:1054C000B9420BD9016821F00F013943016000682E
:1054D00000F00F00B84201D00120D4E72078400747
:1054E0000AD52069296801F07001884204D2296830
:1054F00021F0700101432960207800070AD5606916
:10550000316801F07001884204D2316821F07001E5
:10551000014331602078C0060AD5A069316801F4E2
:10552000E061884204D2316821F4E06101433160D6
:10553000207880060CD5E1695846DBF8002002F09F
:105540007002914204D2026822F070020A430260A3
:1055500000F06CF80E492A682B68C2F3032203F0AE
:105560000F038A5CC95C02F01F0201F01F01D040EA
:10557000084A20FA01F111600749086007480068ED
:10558000BDE8F05FFEF7ACBE0020005218440258A0
:10559000667600082400002420000024180000245F
:1055A00030B500F043F80B4A0B490C4B15681468F2
:1055B000C5F3032204F00F048A5C095D02F01F02A8
:1055C00001F01F01D040064A20FA01F11960106075
:1055D000084630BD184402586676000824000024AE
:1055E0002000002400B5FFF7DBFF05490968054AE4
:1055F000C1F30211515C01F01F01C84000BD000061
:105600001C4402586676000800B5FFF7C9FF05493B
:105610000968054AC1F30221515C01F01F01C8402D
:1056200000BD00001C44025866760008454970B56C
:1056300045480968434B103B11F0380208D001116E
:10564000082A03D0102A0BD0182A0BD0084670BDA8
:1056500019688906FBD51968C1F3C101C84070BD3E
:105660003A4870BD3749374D18310C1D24350A684A
:10567000096826682D6802F0030406F00102C1F3F0
:105680000511C5F3CC0515FB02F200EE102AB8EEA9
:10569000400AE9B32F4ADFED2E0AB7EE001A6CB1CB
:1056A000DFED2D1A012C01D0022C43D002EE101A8E
:1056B0001068F8EE422A81EEA22A1EE01C68A406B9
:1056C00011D51B6801EE901A1168C3F3C103F8EEFF
:1056D000612AD84001EE900AC1F30800F8EE611A81
:1056E00081EEA22A0BE001EE901ADFED1C2A00BF2A
:1056F000F8EE611A106882EEA12AC0F3080001EEEC
:10570000900AF8EE611A40EE201A31EE810A00E0AC
:1057100015E022EE000A1068C0F34620401C00EE9F
:10572000900AF8EE600A80EE201ABCEEC10A10EE74
:10573000100A70BD01EE901ADFED092AD8E70020AB
:1057400070BD0000104402580090D00340787D01E5
:1057500000000039304402580024744A0024744C7C
:1057600020BCBE4B2DE9F05F04007DD0FF4F2078B8
:10577000FE4D1837DFF8F493103DC00748D0D9F834
:105780000000396800F03800102815D0182803D11F
:1057900001F0030002280FD06068B0F5803F12D0FE
:1057A00010B1B0F5A02F18D0286820F48030286000
:1057B000286820F4802009E02868800328D56068E4
:1057C0000028D2D024E0286840F480302860606847
:1057D00088B1FEF749FD064609E0286840F48020BC
:1057E0002860F0E7FEF740FD801B64286FD828682A
:1057F0008003F7D50CE0FEF737FD064605E000BF55
:10580000FEF732FD801B6428F0D828688003F7D4A7
:10581000207841F20308D54E0C3E800769D5D9F8AF
:105820000000396810F038000ED0182801D1880720
:105830000AD0E06890B3296821F01901014329607A
:10584000FEF712FD824631E02868400702D5E06885
:1058500000288AD0E168286820F0190008432860F1
:10586000FEF702FD824607E0DFE000BFFEF7FCFC2A
:10587000A0EB0A000228B9D828684007F6D500BF77
:10588000FEF7ECFC40451BD82069402812D0316857
:1058900021F47C3141EA003030602AE018E000BF9A
:1058A000FEF7E2FCA0EB0A0002289FD82868400718
:1058B000F6D5E5E7306820F47C3040F40030EBE7C3
:1058C000207C316821F0FE4141EA0060E4E70DE10F
:1058D000286820F001002860FEF7C6FC824605E03B
:1058E000FEF7C2FCA0EB0A0002288DD8286840070A
:1058F000F6D42078C0065DD5D9F80000DFF86CB288
:10590000396800F03800ABF1040B082810D01828D3
:1059100003D101F0030001280AD0E06900282868BB
:1059200038D040F080002860FEF79EFC824623E0DD
:105930002868C00523D5E069802876D11FE0206A59
:10594000202821D0316821F0F84141EA80603060A0
:1059500030E000BF94F82010DBF8002022F07C52E9
:1059600042EA0161CBF8001024E000BFFEF77CFCA6
:10597000A0EB0A00022898D82868C005F6D5FEF7E3
:105980006DFC4045E6D8DAE7306820F0F84040F09A
:105990008040DCE720F080002860FEF765FC0646CA
:1059A00005E000BFFEF760FC801B02289DD8286838
:1059B000C005F7D42078000729D56C4861696430A8
:1059C00000298046016811D041F001010160FEF715
:1059D0004BFC064605E000BFFEF746FC801B022894
:1059E000C9D8D8F800008007F6D510E021F00101F1
:1059F0000160FEF739FC064605E000BFFEF734FC07
:105A0000801B022872D8D8F800008007F6D42078CE
:105A1000800623D5A0690028286810D040F4805063
:105A20002860FEF721FC064605E02CE1FEF71CFC91
:105A3000801B02285AD828688004F7D50EE020F48D
:105A400080502860FEF710FC064604E0FEF70CFCD0
:105A5000801B02284AD828688004F7D420784007A1
:105A60004FD5DFF80C81D8F8001041F48071C8F8E8
:105A70000010FEF7F9FB064605E000BFFEF7F4FB59
:105A8000801B642832D8D8F80000C005F6D5374E00
:105A9000A068603601280AD008B1052813D0306804
:105AA00020F001003060306820F0040002E030682F
:105AB00040F001003060A06841F2883A90B1FEF7F2
:105AC000D3FB80460AE0306840F004003060EEE727
:105AD000FEF7CAFBA0EB0801514507D830688007E4
