:020000040800F2
:1000000008050020A10100088B2700081D27000813
:1000100089270008910900087D2E000800000000D3
:100020000000000000000000000000008F27000812
:1000300093090008000000008D27000891270008A0
:10004000BB010008BB010008BB010008BB010008A0
:10005000BB010008BB010008BB010008BB01000890
:10006000BB010008BB010008BB010008BB01000880
:10007000BB010008BB010008BB010008BB01000870
:10008000BB010008BB01000851070008BB010008C4
:10009000BB010008BB010008BB010008BB01000850
:1000A000BB010008BB010008BB010008BB01000840
:1000B000BB010008BB010008BB010008BB01000830
:1000C000BB010008BB010008BB010008BB01000820
:1000D000BB010008DD2D0008BB010008BB010008C2
:1000E000BB010008BB010008BB010008BB01000800
:1000F000BB010008BB010008BB010008BB010008F0
:10010000000000000000000000000000BB0100082B
:10011000BB010008BB010008BB010008BB010008CF
:10012000BB010008BB010008BB010008BB010008BF
:10013000BB010008BB010008000000000000000037
:10014000BB010008BB010008BB0100080000000063
:10015000000000000000000000000000000000009F
:100160000000000000000000BB010008BB01000807
:10017000BB010008000000000000000000000000BB
:1001800000000000BB010008DFF810D000F05EFAAC
:100190000048004785370008AFF3008008050020BD
:1001A0000648804706480047FEE7FEE7FEE7FEE711
:1001B000FEE7FEE7FEE7FEE7FEE7FEE7F5270008BD
:1001C000890100082DE9F05F0546002092469B4614
:1001D00088460646814640241BE02846414647465D
:1001E000224600F020F853465A46C01A914110D3D7
:1001F00011461846224600F061F82D1A67EB0108F7
:100200004F4622460120002100F058F817EB000964
:100210004E41201EA4F10104DFDC484631462A4647
:100220004346BDE8F09F202A04DB203A21FA02F081
:100230000021704721FA02F3D040C2F12002914020
:10024000084319467047D2B201E000F8012B491E5D
:10025000FBD270470022F6E710B513460A46044663
:100260001946FFF7F0FF204610BD00F0004230F0C5
:1002700000400AD0C10D01F56071C0F3160042EADA
:100280000151C208400711437047002001467047E2
:1002900030B50B46014600202022012409E021FA56
:1002A00002F59D4205D303FA02F5491B04FA02F553
:1002B0002844151EA2F10102F1DC30BD202A04DB26
:1002C000203A00FA02F1002070479140C2F1200369
:1002D00020FA03F31943904070472DE9FE4F804602
:1002E00081EA0300C00F0C46009021F0004123F08A
:1002F0000045B8EB0200A94105D240462146904690
:100300001C460B46024623F00040104347D0270D01
:10031000C7F30A00C3F30A510290401A0190402823
:100320006BDAC3F3130040F4801B0098924620B1AF
:100330000023D2EB030A63EB0B0B01985946C0F183
:1003400040025046FFF7BAFF06460D465046594652
:10035000019A00F08DF910EB08006141002487EA52
:10036000115284EAE7731A4340D0009A62B3019AAB
:10037000012A4FEA075215DC001B61EB02014FF026
:10038000004202EA0752CDE90042001C41F580110B
:1003900032462B4600F08DF903B0BDE8F08F4046A1
:1003A0002146F9E7001B61EB0201001C41F58013B7
:1003B00000185B412018A2F5001747EB030140EA43
:1003C000D570B6196D4111E06D084FEA360645EA61
:1003D000C0754FEA0752001B61EB0201001C41F59A
:1003E000801149084FEA30000019514132462B462E
:1003F00003B0BDE8F04F00F04DB900980122400075
:100400000023D0EB020263EBE073009821464FEA31
:10041000E074B8EB000061EB0401E9E783F000430E
:100420005BE781F0004158E72DE9FE4F81EA0304C4
:1004300004F0004421F0004100944FF0000B23F041
:10044000004350EA01045ED052EA03045BD0C3F3D8
:100450000A54C1F30A552C44A4F2F3340194A0FBCE
:100460000254C1F3130141F48011C3F3130343F4A5
:10047000801301FB024400FB034E840A970A44EAFE
:10048000815447EA8357A4FB076802958D0A05FB50
:1004900007854FEA932C04FB0C542705029D4FEA75
:1004A000065847EA1637B5EB08056EEB070C870EC2
:1004B000920E47EA811742EA8312A7FB0201B6EBCC
:1004C0000B0164EB00042B0D43EA0C335E1844EB84
:1004D0001C50DA465146E7FB0201C5F313044FEA0C
:1004E0000B3343EA14534FEA0432019C43EA0603F8
:1004F000A4F10C040294009CCDE900B400F0D9F8FA
:1005000003B0BDE8F08F00200146F9E72DE9F04D7A
:1005100081EA030404F0004B21F0004514464FF03B
:10052000000A23F0004150EA050220D054EA0102FB
:100530001DD0C5F30A570246C5F31303C1F31300D8
:10054000C1F30A5640F4801543F48013A7EB060864
:10055000101BD64608F2FD3873EB050002D308F1F4
:10056000010801E092185B41B8F1000F03DA0020A6
:100570000146BDE8F08D00204FF480110646844608
:100580000EE0171B73EB050705D3121B63EB050386
:1005900006434CEA010C49084FEA300092185B41CF
:1005A00050EA0107EDD152EA030012D082EA0400BA
:1005B00083EA0501084305D0101BAB4106D2012296
:1005C000002306E000224FF0004302E06FF001023A
:1005D00053101AEB06004CEB085110EB0A0041EBEC
:1005E0000B01BDE8F04D00F055B8C1F30A52C1F35C
:1005F000130140F2FF3341F480119A4202DA0020E5
:100600000146704740F233439A42A2F2334202DC81
:100610005242FFF708BEFFF751BE000030B5041E7E
:1006200071F1000404DB4FF00044404264EB01012F
:10063000141E73F1000405DB1C464FF000435242C8
:1006400063EB0403994208BF904230BD064C074D4E
:1006500006E0E06840F0010394E807009847103492
:10066000AC42F6D3FFF794FD3C3900085C39000832
:10067000202A06DBCB17203A41FA02F043EAE07366
:1006800006E041FA02F3D040C2F120029140084353
:100690001946704710B5141E73F1000408DA401CA7
:1006A00041F1000192185B411A4301D120F0010091
:1006B00010BD2DE9F04D92469B4611B1B1FA81F281
:1006C00002E0B0FA80F220329046FFF7F7FD0446D0
:1006D0000F4640EA0A0041EA0B0153465A460843D6
:1006E00013D0114653EA010019D0C8F14002504618
:1006F000FFF799FD05460E46504659464246FFF71C
:10070000DDFD084305D0012004E020463946BDE860
:10071000F08D0020054346EAE0762C4337430A98E3
:100720006305E40AA0EB08000022FD0A44EA4754EE
:100730000A3002D500200146E9E701051019694198
:10074000DDE9084500196941BDE8F04DA2E7000068
:10075000014800F047BB0000B400002030B523483A
:1007600097B0416941F080514161406900F080508B
:100770001590802000904FF488700990684601F031
:10078000B7F800221146122001F080F8122001F083
:100790006FF817484FF0A0410024C0E900148460AE
:1007A0000421C460C0E90441047601254576C56191
:1007B00080F82040C46280F83040446300F0A6FC1A
:1007C000102014941394CDE90F050620CDE91104EF
:1007D0000FA9074800F032F94FF47A7000F0EAFEF2
:1007E0000021034800F0D6F817B030BD00100240D9
:1007F000B400002070B5044600680022836813F03E
:100800000C0F54D0C3689B0105D5637E012B02D128
:10081000237E012B22D060290CD0206882685207E9
:1008200006D58268920703D4826842F01002826083
:100830000C290ED020688268120706D582689207BC
:1008400003D4826842F020028260602915D06C29AE
:1008500011D0042500F0B6FF064624E00C21154B0C
:1008600002E09A4215D2521C0568ED436D06F8D499
:1008700040220260D1E70C25ECE70825EAE700BF3B
:1008800000F0A0FF801B0B280DD92068806828424B
:1008900009D0206C40F010002064606C40F0010032
:1008A0006064012070BD206880682842E8D1002083
:1008B00070BD00000094090070B5044600688168AE
:1008C00001F0030101292AD10168C90727D08168F5
:1008D00001F00D01012914D1816841F0020181600C
:1008E00021680320086000F06DFF054613E000BF9B
:1008F00000F068FF401B02280DD920688068C007FF
:1009000009D0206C40F010002064606C40F00100C1
:100910006064012070BD20688068C007E8D10020B5
:1009200070BD000070B504460068816801F00301E5
:10093000012902D10168C90725D18168134A1142F2
:1009400012D1816841F00101816000F03BFF054652
:1009500014E000BF00F036FF401B02280ED92068CB
:100960000068C043C00709D0206C40F0100020642C
:10097000606C40F001006064012070BD2068006878
:10098000C043C007E6D1002070BD00003F000080DA
:10099000FEE770472DE9F041044690F83C00884698
:1009A00001280AD0012584F83C502046FFF784FF37
:1009B00006004FF0000703D037E00220BDE8F081C9
:1009C00025642068816821F080418160B8F1010FC1
:1009D00004D12068816841F080418160206881688D
:1009E00041F00041816000F0EDFE054613E000BFDC
:1009F00000F0E8FE401B0A280DD920688068002816
:100A000009DA206C20F0020040F01000206484F825
:100A10003C700120D2E7206880680028E8DB206C69
:100A200020F0020040F00100206484F83C70304661
:100A3000C4E770477047704770470000F0B594B046
:100A40000024009490F83C202546012A19D0012763
:100A500080F83C7003689A6852077CD44A681F2665
:100A6000052A11D2D3F830C002EB42025200964060
:100A70002CEA060C0E6896404CEA060CC3F830C00F
:100A800035E0022014B0F0BD0A2A0FD2D3F834C0EA
:100A9000521F02EB4202520096402CEA060C0E68EE
:100AA00096404CEA060CC3F834C020E00F2A0FD25F
:100AB000D3F838C00A3A02EB4202520096402CEAC0
:100AC000060C0E6896404CEA060CC3F838C00EE0DF
:100AD000D3F83CC00F3A02EB4202520096402CEA97
:100AE000060C0E6896404CEA060CC3F83CC002683F
:100AF000936813F00C0F4FF0070374D1D1F800E0A6
:100B0000BEF10A0F10D39669AEF10A0E0EEB4E0C31
:100B100003FA0CFE26EA0E06D1F808E00EFA0CFEE7
:100B200046EA0E0696610FE0D2F814C00EEB4E06B0
:100B300003FA06FE2CEA0E0CD1F808E00EFA06FEC7
:100B40004CEA0E0CC2F814C002684E69D2F80CC010
:100B5000CCF3C10C00E0FDE04FEA4C0C06FA0CF6B9
:100B6000D1F810E0DFF848C2BEF1010F42D0BEF16B
:100B7000020F4DD0BEF1030F58D0BEF1040F63D069
:100B8000166E91F800C006F0F846B6EB8C6F03D1F4
:100B9000166E26F0004616660268566E91F800C082
:100BA00006F0F846B6EB8C6F03D1566E26F0004681
:100BB00056660268966E91F800C006F0F846B6EBED
:100BC0008C6F03D1966E26F0004696660268D66E4C
:100BD00091F800C006F0F846B6EB8C6F03D1D66EE4
:100BE00026F00046D6660268966806F00306012ED7
:100BF0003AD136E0D2F860E00EEA0C0E91F800C06F
:100C000046EA8C664EEA060E4EF000461666EAE7A5
:100C1000D2F864E00EEA0C0E91F800C046EA8C6649
:100C20004EEA060E4EF000465666DCE7D2F868E063
:100C30000EEA0C0E91F800C046EA8C664EEA060EEB
:100C40004EF000469666CEE7D2F86CE00EEA0C0E47
:100C500091F800C046EA8C664EEA060E4EF0004659
:100C6000C0E71668F6077AD1CE68012E06D052F892
:100C7000B03F0E78B740BB43136021E052F8B06F2D
:100C800091F800C007FA0CF73E4316600A680A2A7A
:100C90000BD30668B769093A02EB420293409F43BF
:100CA0008B6893401F43B7610AE007687E69521C56
:100CB00002EB420293409E438B6893401E437E6149
:100CC00003684FF0A0473B4EBB4201D0B34201D175
:100CD000394A00E0394A0968102904D0112907D09F
:100CE00012290AD03BE0D2F808C04FEA0C2C08E0E9
:100CF000D2F808C04FEACC1C03E0D2F808C04FEA93
:100D00004C2CBCF1000F2ADBBB420DD0B34201D109
:100D100000970CE02A4EDFF8ACC0B34202D1CDF808
:100D200000C004E0634501D1009600E000959E6894
:100D300006F00306012E02D11E68F6070AD1009EB6
:100D40008EB1B66806F00306012E0CD1009E3668FF
:100D5000F60708D0016C41F020010164012480F8FD
:100D60003C5020468EE6102908D011291AD01229AD
:100D7000F5D1916841F480019160F0E7BB42EED17A
:100D8000916841F4000191600F49104A0968B1FB74
:100D9000F2F101EB8101490000E0491E00910029B8
:100DA000FBD1DCE7BB42DAD1916841F08071E3E727
:100DB00000F0FF83000100500003005000070050C6
:100DC00000040050000500502800002040420F00A1
:100DD0000149012008707047010000207047006839
:100DE000006C70472DE9F041044600680168C34F6C
:100DF000C34DC44E49074FF0A04802D5416849078A
:100E000005D40168090761D5416809075ED5216CE1
:100E1000C90603D4216C41F4007121644146884223
:100E200001D0B04202D1D1F8082300E03A6812F0B4
:100E30001F0F1BD0884201D0B04202D1D1F8082345
:100E400000E03A6802F01F02052A0FD0884201D064
:100E5000B04202D1D1F8082300E03A6802F01F0244
:100E6000092A03D0884201D0A84201D1C16803E019
:100E7000B04200D02946C968C26812F4406F1FD141
:100E800089041DD4016809071AD5816849070FD460
:100E9000416821F00C014160206C20F480702064D6
:100EA000206CC0040CD4206C40F00100206407E0EA
:100EB000206C40F010002064606C40F00100606421
:100EC0002046FFF785FF21680C2008602068016834
:100ED000890602D54168890605D4016849066ED5A0
:100EE000416849066BD5216C41F4005121644246AA
:100EF000904201D0B04202D1D2F8081300E0396824
:100F000011F01F0F1CD0904201D0B04202D1D2F894
:100F1000081300E0396801F01F01052910D041468F
:100F2000884201D0B04202D1D1F8083300E03B68DA
:100F300003F01F03092B03D0884201D0A84201D13E
:100F4000C16803E0B04200D02946C968C36C13F001
:100F5000C00F56D18B0105D5C36813F4406F50D133
:100F600089044ED4016849064BD51146884201D008
:100F7000B04202D1D1F8082300E03A6812F01F0F06
:100F80001BD0884201D0B04202D1D1F8082300E042
:100F90003A6802F01F02062A0FD0884201D0B04200
:100FA00002D1D1F8082300E03A6802F01F02072AB4
:100FB00003D0884201D0A84202D1C16804E026E0F3
:100FC000B04200D02946C96889021AD4816809074D
:100FD0000FD4416821F060014160206C20F4805002
:100FE0002064206CC0050CD4206C40F0010020640B
:100FF00007E0206C40F010002064606C40F00100BD
:1010000060642046FFF715FD2168602008602068B5
:10101000016809060CD54068000609D5206C40F42B
:1010200080302064204600F097F921688020086015
:1010300020680168C9050DD54068C0050AD5206C37
:1010400040F4003020642046FFF7F5FC21684FF49F
:10105000807008602068016889050DD540688005AA
:101060000AD5206C40F4802020642046FFF7E4FC81
:1010700021684FF40070086020680168C90622D515
:101080004168C9061FD5616B01290ED0404501D0CA
:10109000B04201D11C4901E0184908398A68D206DA
:1010A00028D0886800F4404050B1206C40F4806043
:1010B0002064606C40F0020060642046FFF78EFE02
:1010C00021681020086020680168490510D5416832
:1010D00049050DD5216C41F480412164616C41F0DA
:1010E000080161644FF4806101602046FFF7A2FCB3
:1010F000BDE8F081C068C007D6E7000008070050CF
:10110000000400500001005000030050F0B54FF003
:10111000000695B0040037463546009605D0206C91
:10112000C00648D4206C18B133E0012015B0F0BDE2
:101130006564E564A56484F83C50204600F00DF930
:1011400020688068C00024D42046FFF7B5FB06461F
:10115000206CC0061DD4E6B9206C20F4885040F005
:10116000020020642068816821F04051816020687D
:10117000816841F0805181606E486F490068B0FB22
:10118000F1F000EB8000400000E0401E00900028DD
:10119000FBD120688168C90002D5806880000AD52B
:1011A000206C20F0020040F010002064606C40F0E1
:1011B000010060640126206CC00676D4002E74D134
:1011C00020688168490770D4216C21F4807141F056
:1011D000020121644FF0A04E584B704501D0984257
:1011E00001D1574A00E0574ADFF85CC157497045C2
:1011F00001D100930EE0984202D1CDF800E009E061
:10120000884202D1CDF800C004E0604501D10091D0
:1012100000E00095836803F00303012B02D100680E
:10122000C00710D1009840B1806800F00300012889
:1012300003D100980068C00705D19068636820F466
:10124000403018439060D4E902201043626B012AB9
:1012500002D04FF4805300E00023627E43EA423321
:10126000184394F820303843012B0AD1F2B1226C94
:1012700022F0020242F020022264626C42F001027B
:101280006264A26A012A21D023688B4201D063459F
:1012900018D14FF430774FF4E071BA4213D04FF4C5
:1012A00080739A420AD139460DE039E0A28C284B6E
:1012B00003EB4242024342F48030E2E78A4201D12A
:1012C000194600E011460143E06A084321688A6834
:1012D00012F00C0F0BD1CA6844F202039A43CA60A1
:1012E000217E94F83020890341EA420108432268B4
:1012F000D168184B19400143D1602069012820684A
:10130000016B21F00F0102D1E269521E114301630A
:101310006564206C20F0020040F00100206406E0CB
:10132000206C20F0020040F01000206401263046BE
:10133000FCE600002800002040420F0000010050A1
:10134000000300500007005000050050000400504A
:101350000000FEFF07C0F0FF704770472DE9F04125
:10136000044600688068400770D494F83C00012867
:101370000CD0012084F83C002046FFF7D3FA03008C
:101380004FF0000605D084F83C609EE00220BDE8E6
:10139000F081206C40F60161884340F48070206445
:1013A00020684FF0A0414A4A4A4D884201D09042FD
:1013B00002D1D1F8087300E02F6817F01F0F464FD5
:1013C00003D0884201D0B8420BD1D4F840C02CF4ED
:1013D000801CC4F840C0D0F80CC05FEA8C1C14D448
:1013E0001BE0D4F840C04CF4801CC4F840C09042CC
:1013F00002D1D1F80CC005E0DFF8DCC00CF10C0C18
:10140000DCF800C01CF0007F07D0D4F840C02CF4FA
:10141000005C4CF4805CC4F840C0D4F840C05FEA83
:10142000CC4C06D5D4F844C02CF0060CC4F844C00B
:1014300000E0666484F83C601C2606606069082849
:101440002068466803D046F00C0607E03CE026F032
:10145000040646602068466846F008064660606BF1
:10146000012804D12068466826F0100646602068EE
:10147000884201D0904202D1D1F8084300E02C68A4
:1014800014F01F0F1BD0884201D0904202D1D1F836
:10149000084300E02C6804F01F04052C0FD088429C
:1014A00001D0904202D1D1F8082300E02A6802F06E
:1014B0001F02092A03D0884201D0B84205D18168B1
:1014C00041F00401816000E0022318465FE700005C
:1014D00000010050080700500004005010B50446F9
:1014E00090F83C00012808D0012084F83C006C21D1
:1014F0002046FFF77FF910B110E0022010BD2068F0
:10150000416821F01C0141602046FFF7D5F928B958
:10151000216C21F4885141F001012164002184F8FB
:101520003C1010BD10B590F821100022022905D002
:101530000421816380F82020012010BD01680B6820
:1015400023F00E030B6001680B6823F001030B60AE
:1015500090F84030C46B012101FA03F3636080F816
:10156000211080F82020002010BD10B590F8211027
:101570000024022903D004218163012418E00168BA
:101580000A6822F00E020A6001680A6822F001026D
:101590000A6090F84020C36B012101FA02F25A6000
:1015A00080F82110002180F82010416B01B188479C
:1015B000204610BD70B5044600F004F90546601CD5
:1015C00002D004480078044400F0FCF8401BA0421C
:1015D000FAD370BD1C0000202DE9F04FDFF8AC916C
:1015E000002309F1040A03250AF1040B85B04FF02A
:1015F000010C0F270BF1040EBFE000BF0CFA03F63D
:10160000324075D00C7904F00304012C01D0022C77
:101610001BD1846800945C0005FA04F80494009CD3
:1016200024EA08040094D1F80C80049C08FA04F819
:10163000009C48EA0408C0F808804468B4430E7966
:10164000C6F300169E40264346600C79E443A40787
:101650000AD0C4684FEA430805FA08F6B4438E6816
:1016600006FA08F62643C6600C7904F00304022C3F
:1016700010D1DC0800EB84040294246A5E074FEA70
:10168000D66807FA08F6B4430E6906FA08F6264348
:10169000029C266204684FEA430805FA08F6B44340
:1016A0000E7906F0030606FA08F6264306604C6833
:1016B00014F4403F60D0364CA66946F00106A6619E
:1016C000A46923F0030604F001040094314C34446F
:1016D0000294A4689E074FEA167807FA08F6B44306
:1016E000B0F1904F05D02C4EB04204D1012612E04B
:1016F00042E000260FE0294EB04201D102260AE066
:10170000274EB04201D1032605E0264EB04201D15A
:10171000042600E0052606FA08F62643029CA66089
:10172000D9F800604C46D1F8048096435FEAC83887
:1017300000D516432660DAF800405646D1F80480FA
:1017400094435FEA883800D514433460DBF80040E6
:101750005E46D1F8048094435FEAC82800D514435C
:101760003460DEF800407646D1F8048094435FEAA6
:10177000882800D5144334605B1C0A6832FA03F4ED
:101780007FF43CAF05B0BDE8F08F000000040140DD
:10179000001002400000014000040048000800481A
:1017A000000C004800100048426921EA02030A4088
:1017B00043EA0241816170470AB1816170478162E9
:1017C0007047000001488068704700001C0000203E
:1017D0000248816802781144816070471C00002033
:1017E000074810B5016841F010010160032000F0C6
:1017F0006DF80F2000F006F800F024F8002010BD6E
:101800000020024070B50D4D04464FF47A712878DF
:10181000B1FBF0F00A490968B1FBF0F000F062FD9D
:1018200048B9102C07D200222146501E00F02EF895
:1018300000206C6070BD012070BD00001C00002005
:1018400028000020094808B5816941F00101816143
:10185000816901F001010091C16941F08051C161CC
:10186000C06900F08050009008BD000000100240E8
:10187000002809DB00F01F0201219140400980008F
:1018800000F1E020C0F8001170470000F0B40E4BEA
:101890001B680C46C3F30223C3F10705042D00D9CE
:1018A0000425191D072901D2002300E0DB1E0126B3
:1018B00006FA05F1491E214099409E40761E1640C9
:1018C0003143F0BC01F0ECBA0CED00E0064900F049
:1018D000070208684FF6FF03184040EA0220034A57
:1018E00010430860704700000CED00E00000FA05AE
:1018F0002DE9F84F044600680026804DC0036ED5E0
:10190000E869C00008D4E86940F08050E861E869FF
:10191000012600F08050009079480168C90512D472
:101920000168804641F480710160FFF74BFF074674
:1019300005E000BFFFF746FFC01B642835D8D8F884
:101940000000C005F6D5286A10F4407053D0A18875
:1019500001F4407181424ED0286A4FF4803191FAEF
:10196000A1F2B2FA82F29700664A4FF001081744DA
:1019700020F44070C7F8008491FAA1F1B1FA81F126
:1019800002EB81010023C1F800342862C00732D085
:10199000FFF718FF074641F2883A4FF0020907E0C7
:1019A000FFF710FFC11B514502D90320BDE8F88F96
:1019B00099FAA9F0B0FA80F040F040024946B8EB3D
:1019C000521F01D12A680CE091FAA1F2B2FA82F218
:1019D00042F04002B1EB521F02D12A6A01E015E049
:1019E0006A6A99FAA9F1B1FA81F101F01F0108FAC6
:1019F00001F00242D4D0286A616820F440700843A4
:101A000028621EB1E86920F08050E8612078C007A4
:101A100005D0286BA16820F00300084328632078D4
:101A2000800705D5286BE16820F44030084328631F
:101A30002078400705D5286B216920F44020084311
:101A400028632078800605D5286BE16920F0100016
:101A5000084328632068800305D56868A16B20F4DB
:101A60008000084368602078400605D5286B216A0D
:101A700020F02000084328632078000705D5286B54
:101A8000616920F44010084328632078C00605D51A
:101A9000286BA16920F44000084328632088800552
:101AA00005D56868E16A20F4000008436860207882
:101AB000000605D5E86A616A20F4F8700843E86218
:101AC0002088C00505D5E86AA16A20F4785008434B
:101AD000E8622088C00405D5286B216B20F4807053
:101AE000084328632088800405D5286B616B20F4A7
:101AF000007008432863002058E7000000100240EF
:101B000000700040000042422DE9F0470F460500FA
:101B100069D04A4E306800F00700B84209D23068F8
:101B200020F0070038433060306800F00700B8420A
:101B300059D12878424C800705D56068A96820F003
:101B4000F000084360602878C0073DD06968012034
:101B500001290DD0022923D05FF0020393FAA3F2EA
:101B6000B2FA82F242F02002520904D0226803E065
:101B70004FF40033F2E7626A93FAA3F3B3FA83F304
:101B800003F01F03984002422DD0606820F003004C
:101B900008436060FFF716FE804641F288390CE08A
:101BA0004FF00073DAE700BFFFF70CFEA0EB08016F
:101BB000494502D90320BDE8F0876068696800F0F4
:101BC0000C00B0EB810FEFD1306800F00700B84295
:101BD0000BD9306820F0070038433060306800F0DF
:101BE0000700B84201D00120E5E72878400705D575
:101BF0006068E96820F4E0600843606028780007C6
:101C000006D56068296920F4605040EAC100606030
:101C100000F04EF86168F02292FAA2F201F0F001B1
:101C2000B2FA82F2D140074A515CC84006490860C6
:101C300006480068FFF7E6FD0020BCE700200240F0
:101C40000010024024390008280000202000002055
:101C500008480949006849684FF4E06292FAA2F224
:101C600001F4E061B2FA82F2D140044A515CC8400A
:101C7000704700002800002000100240343900089E
:101C800008480949006849684FF4605292FAA2F284
:101C900001F46051B2FA82F2D140044A515CC8406A
:101CA000704700002800002000100240343900086E
:101CB000164A10B55168164801F00C03042B20D0C9
:101CC000082B1ED14FF4701494FAA4F401F470138D
:101CD000B4FA84F4E3400F4CD26AE45C0F2393FA25
:101CE000A3F302F00F02B3FA83F3DA40094B103387
:101CF000C9039A5C06D500231946FEF763FAA0FBD8
:101D0000040110BD0448A4FB000110BD00100240F6
:101D100000127A000439000800093D002DE9F84F4F
:101D2000050071D02878FC4EC0074FF0010425D083
:101D300070686704C0F38100012807D07068C0F3A1
:101D4000810002281BD17068C00318D597FAA7F04C
:101D5000B0FA80F040F02000400901D0306800E087
:101D6000706A97FAA7F1B1FA81F101F01F0104FA44
:101D700001F1084265D068680028D2D061E0686847
:101D8000B0F5803F0BD010B1B0F5A02F17D0306860
:101D900020F480303060306820F4802002E0306829
:101DA00040F480303060F06AA96820F00F000843EA
:101DB000F062686820B3FFF705FD80460AE03068EE
:101DC00040F480203060EAE7FFF7FCFCA0EB08005D
:101DD000642871D897FAA7F0B0FA80F040F020009C
:101DE000400901D0306800E0706A97FAA7F1B1FAB3
:101DF00081F101F01F0104FA01F10842E4D020E072
:101E0000FFF7E0FC804607E0C2E000BFFFF7DAFC26
:101E1000A0EB08006428DCD897FAA7F0B0FA80F0AD
:101E200040F02000400901D0306800E0706A97FA65
:101E3000A7F1B1FA81F101F01F0104FA01F10842A2
:101E4000E4D12878DFF8D48280074FF0000A4FF001
:101E5000020730D570684FF0F80B10F00C0F07D068
:101E60007068C0F38100022827D17068C00324D4B1
:101E700097FAA7F0B0FA80F040F02000400901D0B6
:101E8000306800E0706A97FAA7F1B1FA81F101F0C9
:101E90001F0104FA01F1084202D02869012877D114
:101EA00030689BFAABF220F0F8016869B2FA82F26E
:101EB0009040014331605AE064E1286988B394FAA4
:101EC000A4F0B0FA80F048F82040FFF77BFC814690
:101ED00006E000BFFFF776FCA0EB090002289AD8C5
:101EE00097FAA7F0B0FA80F040F02000400901D046
:101EF000306800E0706A97FAA7F1B1FA81F101F059
:101F00001F0104FA01F10842E4D030689BFAABF2F9
:101F10006969B2FA82F220F0F8009140084330601B
:101F200025E0FFE794FAA4F0B0FA80F048F820A08A
:101F3000FFF748FC814605E0FFF744FCA0EB0900F1
:101F40000228CCD897FAA7F0B0FA80F040F0200031
:101F5000400901D0306800E0706A97FAA7F1B1FA41
:101F600081F101F01F0104FA01F10842E4D128785F
:101F700000076CD5A869A8B394FAA4F0B0FA80F071
:101F800008EB8000C0F88044FFF71CFC814607E0A6
:101F9000A4E100BFFFF716FCA0EB090002289ED8C1
:101FA00097FAA7F0B0FA80F040F06000B4EB501F51
:101FB00001D130680BE097FAA7F0B0FA80F040F05A
:101FC0006000B7EB501F01D1306A00E0706A97FAE9
:101FD000A7F1B1FA81F101F01F0104FA01F21042F8
:101FE000D8D034E0FFE794FAA4F1B1FA81F108EB1C
:101FF0008101C1F880A4FFF7E5FB814606E000BF40
:10200000FFF7E0FBA0EB090002289AD897FAA7F0A7
:10201000B0FA80F040F06000B4EB501F01D130689E
:102020000BE097FAA7F0B0FA80F040F06000B7EB51
:10203000501F01D1306A00E0706A97FAA7F1B1FA37
:1020400081F101F01F0104FA01F21042D8D1287881
:10205000400768D5F0694FF00009C00009D4F06965
:1020600040F08050F061F0694FF0010900F08050BD
:1020700000902B480168C90512D4016841F48071B1
:102080000160FFF79FFB834606E000BFFFF79AFB66
:10209000A0EB0B00642875D821480068C005F5D571
:1020A000E86801280AD008B1052811D0306A20F06C
:1020B00001003062306A20F0040002E0306A40F033
:1020C00001003062E86868B3FFF77CFB83460DE0EF
:1020D000306A40F004003062F0E700BFFFF772FBA7
:1020E000A0EB0B0141F2883081424BD897FAA7F060
:1020F000B0FA80F040F04000B4EB501F01D13068DE
:1021000013E097FAA7F0B0FA80F040F04000B7EB88
:10211000501F09D1306A08E000100240000042421E
:10212000007000400CE040E0706A97FAA7F1B1FA45
:1021300081F101F01F0104FA01F21042CED02DE02E
:10214000FFF740FB834607E0FFF73CFBA0EB0B01EA
:1021500041F28830814215D897FAA7F0B0FA80F0A2
:1021600040F04000B4EB501F01D130680CE097FA0A
:10217000A7F0B0FA80F040F04000B7EB501F02D15A
:10218000306A01E083E0706A97FAA7F1B1FA81F151
:1021900001F01F0104FA01F21042D5D1B9F1000F8C
:1021A00003D0F06920F08050F061E86980B3716875
:1021B000C1F38101022977D04FF080714F000228CE
:1021C000504609D091FAA1F1B1FA81F148F8210005
:1021D000FFF7F8FA05465DE0894691FAA1F1B1FAF8
:1021E00081F1C24648F82100FFF7ECFA804605E08D
:1021F000FFF7E8FAA0EB0800022848D897FAA7F002
:10220000B0FA80F040F02000400902D0306801E0D0
:1022100066E0706A97FAA7F1B1FA81F101F01F0147
:1022200004FA01F10842E3D1D5E9081008437168C6
:1022300021F474110843706099FAA9F0B0FA80F0A3
:102240004AF82040FFF7BEFA054604E0FFF7BAFA65
:10225000401B02281BD897FAA7F0B0FA80F040F094
:102260002000400901D0306800E0706A97FAA7F1B9
:10227000B1FA81F101F01F0104FA01F10842E5D041
:102280002EE000BFFFF79EFA401B022802D9032070
:10229000BDE8F88F97FAA7F0B0FA80F040F0200080
:1022A000400902D0306801E00BE0706A97FAA7F1AC
:1022B000B1FA81F101F01F0104FA01F10842E1D104
:1022C0000EE00128E4D070682A6A00F4803191425F
:1022D00004D1696A00F47010884201D00120D7E768
:1022E0000020D5E710B5401EB0F1807F01D301205A
:1022F00010BD4FF0E02460610F21601700F0D0FDA9
:102300000020A06107202061002010BD70477047A9
:10231000704700002DE9F04102680446D069116859
:10232000936840F60F0528424FF0000505D1860658
:102330007ED58E067CD5616E1AE1994F03F00106B9
:102340000F40374374D0C70709D0CF0507D5012701
:102350001762D4F8802042F00102C4F8802082077E
:102360000AD5DA0708D0276802223A62D4F880201A
:1023700042F00402C4F8802042070AD5DA0708D0E8
:10238000236804221A62D4F8802042F00202C4F8C2
:10239000802002070CD501F02002324308D02368C8
:1023A00008221A62D4F8802042F00802C4F8802083
:1023B00002050BD54A0109D523684FF400621A6261
:1023C000D4F8802042F02002C4F88020D4F8802085
:1023D000002A35D0800605D5880603D5616E09B17F
:1023E00020468847D4F8800021688968490602D4CD
:1023F00010F0280F26D0204600F0A0FA2068806850
:1024000040061AD52068083050E8001F21F040012E
:1024100040E80012002AF5D1206F70B16149416394
:10242000206FFFF7A2F800280AD0206F416B01E06F
:102430000EE02046BDE8F04108472046FFF768FF60
:10244000BDE8F0812046FFF763FFC4F88050F7E74E
:10245000276E2026012F7AD1C70678D5CF0676D5EC
:102460001020106220688068400640D5216F0868FF
:1024700040680004000CE3D0B4F858208242DFD951
:10248000A4F85A00886920282AD0216851E8000F52
:1024900020F4807041E80002002AF6D1206808305C
:1024A00050E8001F21F0010140E80012002AF5D198
:1024B0002068083050E8001F21F0400140E8001279
:1024C000002AF5D1E6672566216851E8000F20F063
:1024D000100041E80002002AF6D1206FFFF722F831
:1024E000B4F85800B4F85A10401A81B22AE0B4F88F
:1024F0005800B4F85A10401A81B2B4F85A000028B3
:102500009ED000299CD0226852E8000F20F49070E1
:1025100042E80003002BF6D12068083050E8002F75
:1025200022F0010240E80023002BF5D1E667256682
:102530006566226852E8000F20F0100042E80003B0
:10254000002BF6D12046FFF7E1FE79E7FFE7C7024F
:1025500009D55B0207D54FF4801010622046BDE814
:10256000F041FFF7D4BE020606D50A0604D5A16ED7
:1025700000297FF45EAF63E74006E6D54806E4D560
:102580002046016851E8002F22F0400241E8002374
:10259000002BF6D18667856600F0BFF850E7000093
:1025A000200100042929000810B5040002D0A06F02
:1025B00010B107E0012010BD002084F8740020460F
:1025C00000F025F82420A0672068016821F00101AF
:1025D0000160204600F076FA0128ECD0606A10B164
:1025E000204600F00FF92068416821F490414160D5
:1025F0002068816821F02A0181602068016841F02B
:10260000010101602046BDE8104000F05FB970474D
:1026100030B4C36F202B1DD1C9B1C2B190F8743052
:10262000012B17D0012380F8743000230366036860
:102630005B681B0208D5046854E8003F43F08063E0
:1026400044E80035002DF6D130BC00F01FBB01205E
:1026500030BC70470220FBE7014901200870704739
:10266000000000202DE9F8430446806F1F461646FF
:102670000D4620284FD1CDB1C6B194F87400012881
:1026800049D0012084F874004FF00008C4F880801D
:102690002120A067FFF796F8A4F850608146A4F8BF
:1026A0005260A068B0F5805F03D004E00120BDE86F
:1026B000F883206928B12E465FF0000584F8748005
:1026C00010E00026FAE78021204600F023FBB8B98D
:1026D000C6B116F8010B21680885B4F85200401EF7
:1026E000A4F85200B4F852004B464FF00002009795
:1026F0000028E8D14FF04001204600F00BFB30B13C
:102700000320D4E735F8020BC0F30800E3E72020EC
:10271000A0670020CBE70220C9E77047FEE7000072
:102720000C4800B5416987B041F40011416140692E
:10273000022100F4001005900120CDE90101039071
:102740004FF47F40009069460348FEF745FF07B00D
:1027500000BD00000010024000100048094808B504
:10276000416941F480014161416901F480010091B6
:10277000416941F400314161406900F4003000904A
:1027800008BD000000100240FEE7FEE770477047FA
:10279000FFF71EB830B58FB028216846FDF75AFD07
:1027A00014210AA8FDF756FD01204FF4A0210024B2
:1027B0008DE81300049002250004CDE907504FF482
:1027C000E01009906846FFF7A9FA08B172B6FEE773
:1027D0000F20CDE90A054FF48060CDE90C400221BD
:1027E0000AA80E94FFF790F9002801D072B6FEE710
:1027F0000FB030BD0248016841F4700101607047BC
:1028000088ED00E090F82410C90706D001684A68F6
:10281000836A22F400321A434A6090F82410890730
:1028200006D501684A68C36A22F480321A434A60B6
:1028300090F82410490706D501684A68036B22F412
:1028400080221A434A6090F82410090706D50168CF
:102850004A68436B22F400421A434A6090F82410FD
:10286000C90606D501688A68836B22F480521A4330
:102870008A6090F82410890606D501688A68C36BBF
:1028800022F400521A438A6090F82410490611D5A8
:1028900001684A68036C22F480121A434A60016C92
:1028A000B1F5801F06D101684A68436C22F4C0026A
:1028B0001A434A6090F82410090606D501684A6850
:1028C000806C22F4002202434A607047F8B500266B
:1028D0000446C0F88060FEF775FF05462068006872
:1028E0006FF07E47000708D52B4600224FF40011F9
:1028F0002046009700F00EFA60B920680068400793
:102900000AD52B4600224FF480012046009700F0A4
:1029100001FA08B10320F8BD2020A067E067266611
:1029200084F874600020F8BD10B5406A0021A0F85A
:102930005A10A0F85210FFF7EBFC10BD016851E8E7
:10294000002F22F4907241E80023002BF6D1016899
:10295000083151E8002F22F0010241E80023002B4A
:10296000F5D1016E012908D1026852E8001F21F05B
:10297000100142E80013002BF6D12021C16700218D
:1029800001664166704710B5B0F85C20C36F0168FE
:10299000222B04D0886940F00800886110BD898C22
:1029A000436D11401980416D891C4165B0F85A1082
:1029B000491EA0F85A10B0F85A100029EED102684A
:1029C00052E8001F21F4907142E80013002BF6D169
:1029D0000168083151E8002F22F0010241E800238C
:1029E000002BF5D12021C16700214166026E012A2A
:1029F00002D0FFF731FE10BD0166026852E8001FE9
:102A000021F0100142E80013002BF6D10168CA69D9
:102A1000D243D20601D410220A62B0F85810FFF750
:102A200075FC10BD10B5B0F85C20C36F0168222B97
:102A300004D0886940F00800886110BD898C11407D
:102A4000426D1170416D491C4165B0F85A10491E24
:102A5000A0F85A10B0F85A100029EED1026852E8D6
:102A6000001F21F4907142E80013002BF6D1016899
:102A7000083151E8002F22F0010241E80023002B29
:102A8000F5D12021C16700214166026E012A02D0E2
:102A9000FFF7E2FD10BD0166026852E8001F21F059
:102AA000100142E80013002BF6D10168CA69D24335
:102AB000D20601D410220A62B0F85810FFF726FCA3
:102AC00010BD000070B5044680682169E2690843C2
:102AD00061690025114322680843116849F20C63BB
:102AE00099430143116020684168E26821F4405134
:102AF00011434160216AA06901432068826822F481
:102B000030620A4382605A4A20685A4990420CD186
:102B1000086B10F0030006D001285FD002285FD0B8
:102B2000032845D158E0012143E0534A90420DD19A
:102B3000086B10F440304DD0B0F5803F4ED0B0F56A
:102B4000003F4DD0B0F5403F32D145E04B4A904276
:102B50000DD1086B10F440203CD0B0F5802F3DD053
:102B6000B0F5002F3CD0B0F5402F21D134E0444ADD
:102B700090420DD1086B10F440102BD0B0F5801F9F
:102B80002CD0B0F5001F2BD0B0F5401F10D123E0A2
:102B90003C4A90420CD1086B10F440001AD0B0F5BA
:102BA000800F1BD0B0F5000F1AD0B0F5400F13D036
:102BB0001021E3694FF40040334A4FF6EF76834229
:102BC0002ED109294AD2DFE801F00D101349154929
:102BD000494918000021ECE70221EAE70421E8E76F
:102BE0000821E6E7FFF734F806E0FFF749F803E0CD
:102BF000104602E0FFF75CF888B34100606801EB23
:102C00005001B1FBF0F081B2A1F11000B04225D823
:102C10004FF6F07201EA0200C1F3420108431FE0DF
:102C200009291BD2DFE801F005080B1A0D1A1A1A40
:102C30001000FFF70DF806E0FFF722F803E010465A
:102C400002E0FFF735F850B1616800EB5100B0FBCE
:102C5000F1F080B2A0F11001B14201D9012501E0EB
:102C60002168C86000206066A066284670BD00002C
:102C7000003801400010024000440040004800407D
:102C8000004C00400050004000127A0030B5416511
:102C9000A0F85820A0F85A200022426683684FF41A
:102CA0008054FF21A34204D1036953BB40F2FF11BA
:102CB00027E01BB3A0F85C20C0F880202221C16768
:102CC0000168083151E8003F43F0010341E8003555
:102CD000002DF5D18168A14201D10169A1B10B4953
:102CE000416680F87420026852E8001F41F4907138
:102CF00042E80013002BF6D1002030BD036903B178
:102D00007F21A0F85C10D7E70149E9E7252A0008F0
:102D1000872900082DE9F0479A4617460E460446D3
:102D20004FF000094FF02008089D4AE0681C48D089
:102D3000FEF748FDA0EB0A00A8422AD84DB3206850
:102D4000016849073DD5C069C043000539D42168F1
:102D50004FF400600862206850E8001F21F4D07131
:102D600040E80012002AF6D12068083050E8001F21
:102D700021F0010140E80012002AF5D1C4F8788062
:102D8000C4F87C80C4F8808084F874900320BDE887
:102D9000F087216851E8000F20F4D07041E800026C
:102DA000002AF6D12068083050E8001F21F0010108
:102DB00040E80012002AF5D1C4F87880C4F87C807D
:102DC000E2E72068C06936EA000004D00020B8427B
:102DD000ACD00020DBE70120F9E700000148FFF755
:102DE00099BA00003000002030B595B001250024CC
:102DF000684600950294FEF77BFD1C48816941F40A
:102E000080418161816901F480411491416941F4FB
:102E10000021416140690FA900F4002014900720AF
:102E2000139030200F900220CDE91005032012905E
:102E30000F48FEF7D1FB002211462520FEF726FDA4
:102E40002520FEF715FD0C480A4901604FF4E131D9
:102E5000C0E901140C21C460C0E904418461C4616B
:102E600004624462FFF7A0FB15B030BD00100240C1
:102E7000000800480038014030000020FEE7000054
:102E80000FB4054B10B503A9044A029800F0EAF804
:102E900010BC5DF814FB00006D3700082C0000200A
:102EA0000907090E002804DB00F1E02080F8001477
:102EB000704700F00F0000F1E02080F8141D70470B
:102EC00002E008C8121F08C1002AFAD170477047F3
:102ED000002001E001C1121F002AFBD17047000051
:102EE0002DE9FF5F82B00021DDE90430020DDDF83D
:102EF00040B0034318D044F61050A2F2FF324243D0
:102F00001514119801281FD0A5EB0B00401C5FEA97
:102F1000000A4FF000064E4FDFF83891B046504699
:102F200015D5CAF1000413E0119801244AA3012821
:102F300001D16FEA0B010298119AC0E90031C0E992
:102F4000024206B0BDE8F09FCBF10000DFE7044687
:102F50000021404A491842EB0450CDE9001012E02C
:102F6000E00707D032463B4640464946FDF75CFA4B
:102F70008046894632463B4610461946FDF754FACC
:102F800006460F466410002CEAD1DDE90401DDE9B4
:102F90000023BAF1000F06DAFDF746FA42464B4627
:102FA000FDF742FA05E0FDF7B1FA42464B46FDF760
:102FB000ADFA04460E460022284BFDF72FFB03D83E
:102FC0004FF0FF30014607E00022254B20463146F6
:102FD000FDF783F9FDF709FB102409E0002C0ADB5B
:102FE0000A220023FDF7EEF8039B30321A55641EC7
:102FF00050EA0102F2D1641C039AC4F11103144493
:10300000119A012A03D0012208430DD10AE0084396
:1030100004D000204FF0110B119072E7A3EB0B05C9
:103020006D1E0DE05B4504DD4FF0000205F101056A
:1030300004E003DA4FF00002A5F10105002AECD00C
:1030400002981199C0E90231C0E9004579E7000012
:10305000000014400000F03F300000000000F0438A
:103060000000E03F2DE9FF4F95B09A46884606469E
:103070000025EEE1252877D100242746F94A0121D1
:10308000039400E0044316F8013F203B01FA03F0EB
:103090001042F7D130782A2811D06FF02F03307802
:1030A000A0F13002092A16D8039A44F0020402EB78
:1030B000820203EB42021044761C0390EFE758F8BB
:1030C000042B0392002A03DA504244F40054039084
:1030D00044F00204761C30782E2816D116F8010F21
:1030E00044F004042A280DD06FF02F023078A0F1AC
:1030F0003003092B09D807EB870302EB4303C718FA
:10310000761CF3E758F8047B761C30786C280FD0D7
:1031100006DC4C2817D068280DD06A2814D104E0AA
:10312000742810D07A280FD10DE044F400140AE07E
:1031300044F4801401E044F440147278824202D1D5
:1031400004F58014761C761C307866280BD013DCCE
:10315000582877D009DC002875D04528F6D04628B5
:10316000F4D047281AD193E118E0632835D06428B9
:1031700079D0652812D18BE1702873D008DC6728DC
:10318000F1D069286FD06E280DD06F2806D1ACE041
:1031900073282CD0752874D0782853D052461799AC
:1031A00090476D1C54E1C4F30250022809D0032853
:1031B0000DD0D8F8001004280DD00D6008F10408D7
:1031C00046E1D8F80010EA17C1E90052F6E7D8F84E
:1031D00000100D80F2E70D70F0E718F8041B8DF871
:1031E000001000208DF80100EB46012003E058F8A4
:1031F00004BB4FF0FF3061074FF0000102D40DE037
:1032000009F101018946B9420FDA8145F8DB1BF863
:1032100009100029F4D108E009F101018946814231
:10322000FADB1BF809100029F6D103985346A0EBEE
:10323000090721463846179A00F080FA284400EB27
:10324000090507E044E008E10DE01BF8010B5246D8
:1032500017999047B9F10109F7D2534621463846EC
:10326000179AF2E039E00A21C4F302524FF0000B42
:103270000091022A06D058F8040BC117032A09D07E
:103280000AE023E008F1070020F00702F2E802015B
:10329000904605E000B2C117042A01D140B2C1171F
:1032A000002906DA0A460021404261EB02012D2284
:1032B00002E0220504D52B228DF80420012203E030
:1032C000E20701D02022F7E7914657E00A2100E00B
:1032D00010214FF0000B00910BE010214FF0000B7C
:1032E00044F004040827009103E008204FF0000B8D
:1032F0000090C4F30252022A05D058F8040B0021B2
:10330000032A08D008E008F1070020F00702F2E8DD
:103310000201904603E080B2042A00D1C0B24FF00F
:10332000000922072AD53278702A07D0DDF800C0BC
:103330008CF0100C5CEA0B0C05D00EE040228DF8EE
:103340000420012208E050EA010306D030238DF862
:1033500004308DF8052002229146009B83F008037B
:1033600053EA0B030AD150EA010201D1620705D5E5
:1033700030228DF804204FF001097F1E3278582A40
:1033800004D039A20C920CAA02920BE03BA2F9E7FE
:103390005B46009AFCF716FF0C9B9B5C029A521E40
:1033A0000292137050EA0102F2D1029804A9081A9D
:1033B00000F1200B600702D524F4803400E00127DF
:1033C0005F4502DDA7EB0B0000E0002000EB0B01E6
:1033D000009003984944401A0390E00306D45346F2
:1033E0002146179A039800F0A9F90544002706E042
:1033F00001A85246C05D179990476D1C7F1C4F4530
:10340000F6DBE0030CD553462146179A039800F0EB
:1034100095F9054404E030205246179990476D1CF9
:103420000099481E00900029F5DC08E002980299F6
:1034300052460078491C0291179990476D1CBBF1C8
:103440000001ABF1010BF1DC5BE100F065F9054433
:10345000761C307800287FF40DAE19B02846BDE800
:10346000F08F00000928010030313233343536370F
:1034700038396162636465660000000030313233C0
:103480003435363738394142434445460000000060
:10349000600700D4062708F1070020F00700F0E8D5
:1034A0000223804603F0004C5FEA0C0001D097A095
:1034B00009E0200501D596A005E0E00701D095A020
:1034C00001E0AFF24C001390307823F00043652800
:1034D0000CD006DC452809D046281DD047287FD1CE
:1034E0003BE0662818D067287AD136E00021112FFA
:1034F00001DB112000E0781CCDE9000104A90CA833
:10350000FFF7EEFCDDE90D010C9A4FF0000B07F11F
:103510000109109200914EE04FF000400097CDE974
:10352000011004A90CA8FFF7DBFCDDE90D020C9BE0
:103530000F994FF0000B91461093009211B9791C2E
:1035400000EB0109B7EB090003D4C0F1FF3B07F121
:103550000109A9EB0700019042E0012F00DA0127E1
:103560000021112F01DD112000E03846CDE90001D6
:1035700004A90CA8FFF7B4FCDDE90D010C9A009139
:103580004FF0000BB946109221070FD4009A4A451C
:1035900003DA914601E0A9F10109B9F1010F05DD56
:1035A000109AA9F10101515C3029F4D0B84202DA35
:1035B00010F1040F03DA0121CDE9011010E0002819
:1035C00003DC8344A9EB000102E0411C494500DD16
:1035D0008946A0EB0B00401C01904FF00040029088
:1035E000200705D40198484502DB4FF0FF300190D9
:1035F00000208DF84B0002980DF14B07B0F1004F01
:1036000025D002200C902B200D90029800280CDA77
:10361000404202902D200D9007E00A210298FCF70D
:1036200037FE3031029007F8011D0C99481E0C90AE
:103630000029F2DC02980028EFD1791E0D9808705D
:10364000307800F0200040F0450007F8020D11A886
:10365000C01BC01D02901398007800B1012000EB40
:103660000901019801EBE071029801440398401AA6
:10367000401E0390E00306D453462146179A039850
:1036800000F05CF805441398007818B15246179979
:1036900090476D1CE00323D553462146179A0398A3
:1036A00000F04CF805441BE0BBF1000F07DB00986D
:1036B000584504DD1098179910F80B0001E0179990
:1036C00030205246904701980BF1010B401E05F146
:1036D0000105019004D12E205246179990476D1C88
:1036E000B9F10001A9F10109DEDC05E017F8010BD1
:1036F0005246179990476D1C0299481E0290002966
:10370000F4DC53462146179A03989EE62D000000EC
:103710002B000000200000002DE9F04104460025A8
:103720001E461746880404D405E039462020B047D9
:103730006D1C641EF9D52846BDE8F0812DE9F041E5
:10374000044600251E469046C80301D5302700E0F8
:103750002027880404D505E041463846B0476D1C53
:10376000641EF9D52846BDE8F081000013B54FF47A
:103770007A73012269460248FEF774FF00981CBD67
:1037800030000020FEF72CF8FFF704F8FEF7E6FF04
:10379000FEF7C6FFFFF728FBFCF7E0FF48A0FFF7A6
:1037A0006FFB4B4C4B4800252570008860804A4ECB
:1037B0004FF4804804F114074FF480794FF4806A85
:1037C0004FF4006B41463046FDF7EEFFFA20FDF75F
:1037D000F1FE207810B1012807D01CE03C490222FC
:1037E00014313E48FEF714FF15E025703878412863
:1037F00041D042284FF00002494630464ED0FDF7F6
:10380000DBFF002251463046FDF7D6FF0122594624
:103810003046FDF7D1FF60780128D3D1657030487C
:10382000FDF7DDFA00EE100ADFED2E0AE060B8EEDB
:10383000400A94ED011A20EE200ADFED2B0A20EE5B
:10384000200AD4ED020A30EEC00AC0EE010A9FED54
:10385000271AB3EE090A00EE810A84ED040A10EE7D
:10386000100AFCF702FD41EC100B21A053EC102BC9
:10387000FFF706FBA6E7012249463046FDF79CFF0D
:10388000002251463046FDF797FF00225946304648
:10389000FDF792FF1248FDF761FD0EE0FDF78CFF8A
:1038A000012251463046FDF787FF00225946304637
:1038B000FDF782FF0A48FDF711FE657082E7000000
:1038C00048656C6C6F20576F726C64210A000000B1
:1038D00000000020BAF7FF1F001000483000002051
:1038E000B400002000008039A2453E4000007A4428
:1038F00074656D70203D20252E3366202A43200DEF
:103900000A00000002030405060708090A0B0C0D53
:103910000E0F10100102030405060708090A0B0C1C
:103920000D0E0F1000000000000000000102030453
:103930000607080900000000010203045C390008C2
:103940000000002030000000C02E00088C39000864
:1039500030000020D8040000D02E00080000000035
:10396000000080401F85AB3F000000000000000009
:103970000000000000000000010000001000000036
:0C3980000000000000127A0000000000AF
:040000050800018965
:00000001FF
