:020000040800F2
:10000000F8060020290200086F120008F11100080C
:100010006D1200081F040008B3160008000000005D
:100020000000000000000000000000007312000843
:100030002104000800000000711200087512000879
:10004000430200084302000843020008430200087C
:10005000430200084302000843020008430200086C
:10006000430200084302000843020008430200085C
:10007000430200084302000843020008430200084C
:10008000430200084302000843020008430200083C
:10009000430200084302000843020008430200082C
:1000A000430200084302000843020008430200081C
:1000B000430200084302000843020008430200080C
:1000C00043020008430200084302000843020008FC
:1000D00043020008430200084302000843020008EC
:1000E00043020008430200084302000843020008DC
:1000F00043020008430200084302000843020008CC
:1001000000000000000000000000000043020008A2
:1001100043020008430200084302000843020008AB
:10012000430200084302000843020008430200089B
:100130004302000843020008000000000000000025
:1001400043020008430200084302000800000000C8
:10015000000000000000000000000000000000009F
:1001600000000000000000004302000843020008F5
:100170004302000800000000000000000000000032
:10018000000000004302000800F002F800F03CF814
:100190000AA090E8000C82448344AAF10107DA45E2
:1001A00001D100F031F8AFF2090EBAE80F0013F0F8
:1001B000010F18BFFB1A43F0010318476C1500002C
:1001C0008C150000103A24BF78C878C1FAD85207BD
:1001D00024BF30C830C144BF04680C6070470000C1
:1001E0000023002400250026103A28BF78C1FBD840
:1001F000520728BF30C148BF0B6070471FB501F0E0
:1002000072FA1FBD10B510BD00F0CFF81146FFF710
:10021000F5FF01F05FFA00F0EDF803B4FFF7F2FF2D
:1002200003BC00F0F5F80000094880470948004782
:10023000FEE7FEE7FEE7FEE7FEE7FEE7FEE7FEE796
:10024000FEE7FEE704480549054A064B70470000F3
:10025000F112000889010008F8000020F8060020CB
:10026000F8020020F802002053EA020C00F0698036
:100270002DE9F04B4FF00006002B1FBFB3FA83F5BA
:1002800003FA05F424FA05F65E4012BF1643B2FAEB
:1002900082F502FA05F4C5F120051EBF22FA05FC1D
:1002A00044EA0C04203556EA044C4FEA144418BFC3
:1002B000641C4FF000084FF00009904271EB030CF2
:1002C00039D3002919BFB1FA81F701FA07F6B0FA5C
:1002D00080F700FA07F6C7F120071EBF20FA07FCD7
:1002E00046EA0C062037B6FBF4FCA7EB0507103FE7
:1002F00007F01F0BCBF120060CFA0BFB2CFA06F6CD
:1003000044BFB3460026202FA4BF5E464FF0000B2B
:100310005BEA060C08BF4FF0010B19EB0B09ABFBB6
:10032000027C48EB0608C01B06FB02CC0BFB03CC8F
:1003300071EB0C01C1E70B46024641464846BDE859
:10034000F08B13B54FF000004FF00001AFF30080C9
:10035000BDE81C4070474FF0000200B513469446BC
:100360009646203922BFA0E80C50A0E80C50B1F10D
:100370002001BFF4F7AF090728BFA0E80C5048BF21
:100380000CC05DF804EB890028BF40F8042B08BFBF
:10039000704748BF20F8022B11F0804F18BF00F8BB
:1003A000012B7047704770477047754600F02CF876
:1003B000AE4605006946534620F00700854618B052
:1003C00020B5FFF73FFFBDE820404FF000064FF09B
:1003D00000074FF000084FF0000B21F00701AC467A
:1003E000ACE8C009ACE8C009ACE8C009ACE8C00999
:1003F0008D46704710B50446AFF300802046BDE837
:100400001040FFF70ABF000000487047940000202A
:1004100001491820ABBEFEE7260002007047FEE748
:10042000704772B6FEE700002DE9F04FDFF8AC919F
:10043000002309F1040A03250AF1040B85B04FF0EB
:10044000010C0F270BF1040EBFE000BF0CFA03F6FE
:10045000324075D00C7904F00304012C01D0022C39
:100460001BD1846800945C0005FA04F80494009C95
:1004700024EA08040094D1F80C80049C08FA04F8DB
:10048000009C48EA0408C0F808804468B4430E7928
:10049000C6F300169E40264346600C79E443A40749
:1004A0000AD0C4684FEA430805FA08F6B4438E68D8
:1004B00006FA08F62643C6600C7904F00304022C01
:1004C00010D1DC0800EB84040294246A5E074FEA32
:1004D000D66807FA08F6B4430E6906FA08F626430A
:1004E000029C266204684FEA430805FA08F6B44302
:1004F0000E7906F0030606FA08F6264306604C68F5
:1005000014F4403F60D0364CA66946F00106A6615F
:10051000A46923F0030604F001040094314C344430
:100520000294A4689E074FEA167807FA08F6B443C7
:10053000B0F1904F05D02C4EB04204D1012612E00C
:1005400042E000260FE0294EB04201D102260AE027
:10055000274EB04201D1032605E0264EB04201D11C
:10056000042600E0052606FA08F62643029CA6604B
:10057000D9F800604C46D1F8048096435FEAC83849
:1005800000D516432660DAF800405646D1F80480BC
:1005900094435FEA883800D514433460DBF80040A8
:1005A0005E46D1F8048094435FEAC82800D514431E
:1005B0003460DEF800407646D1F8048094435FEA68
:1005C000882800D5144334605B1C0A6832FA03F4AF
:1005D0007FF43CAF05B0BDE8F08F0000000401409F
:1005E00000100240000001400004004800080048DC
:1005F000000C004800100048014880687047000067
:100600000000002002488168027811448160704730
:1006100000000020074810B5016841F0100101609A
:10062000032000F05FF80F2000F006F800F024F837
:10063000002010BD0020024070B50D4D04464FF45F
:100640007A712878B1FBF0F00A490968B1FBF0F043
:1006500000F054FD48B9102C07D200222146501E4C
:1006600000F020F800206C6070BD012070BD00001B
:10067000000000200C000020094808B5816941F005
:1006800001018161816901F001010091C16941F0BD
:100690008051C161C06900F08050009008BD000029
:1006A00000100240F0B40E4B1B680C46C3F302234B
:1006B000C3F10705042D00D90425191D072901D20E
:1006C000002300E0DB1E012606FA05F1491E214049
:1006D00099409E40761E16403143F0BC00F0EABFC0
:1006E0000CED00E0064900F0070208684FF6FF0332
:1006F000184040EA0220034A104308607047000097
:100700000CED00E00000FA052DE9F84F0446006802
:100710000026804DC0036ED5E869C00008D4E869A2
:1007200040F08050E861E869012600F080500090B8
:1007300079480168C90512D40168804641F4807186
:100740000160FFF759FF074605E000BFFFF754FFC0
:10075000C01B642835D8D8F80000C005F6D5286A33
:1007600010F4407053D0A18801F4407181424ED002
:10077000286A4FF4803191FAA1F2B2FA82F297001E
:10078000664A4FF00108174420F44070C7F800840F
:1007900091FAA1F1B1FA81F102EB81010023C1F8D4
:1007A00000342862C00732D0FFF726FF074641F227
:1007B000883A4FF0020907E0FFF71EFFC11B5145C1
:1007C00002D90320BDE8F88F99FAA9F0B0FA80F0B9
:1007D00040F040024946B8EB521F01D12A680CE0B4
:1007E00091FAA1F2B2FA82F242F04002B1EB521F4A
:1007F00002D12A6A01E015E06A6A99FAA9F1B1FA10
:1008000081F101F01F0108FA01F00242D4D0286AF8
:10081000616820F44070084328621EB1E86920F046
:100820008050E8612078C00705D0286BA16820F0CF
:100830000300084328632078800705D5286BE1680A
:1008400020F44030084328632078400705D5286B02
:10085000216920F44020084328632078800605D5CC
:10086000286BE16920F010000843286320688003AA
:1008700005D56868A16B20F4800008436860207883
:10088000400605D5286B216A20F020000843286324
:100890002078000705D5286B616920F440100843D3
:1008A00028632078C00605D5286BA16920F4400094
:1008B000084328632088800505D56868E16A20F42C
:1008C0000000084368602078000605D5E86A616A80
:1008D00020F4F8700843E8622088C00505D5E86A6E
:1008E000A16A20F478500843E8622088C00405D546
:1008F000286B216B20F480700843286320888004D3
:1009000005D5286B616B20F4007008432863002034
:1009100058E7000000100240007000400000424212
:100920002DE9F0470F46050069D04A4E306800F0C7
:100930000700B84209D2306820F007003843306021
:10094000306800F00700B84259D12878424C80073F
:1009500005D56068A96820F0F00008436060287839
:10096000C0073DD06968012001290DD0022923D09C
:100970005FF0020393FAA3F2B2FA82F242F020028D
:10098000520904D0226803E04FF40033F2E7626AB0
:1009900093FAA3F3B3FA83F303F01F0398400242E0
:1009A0002DD0606820F0030008436060FFF724FE4C
:1009B000804641F288390CE04FF00073DAE700BF5F
:1009C000FFF71AFEA0EB0801494502D90320BDE854
:1009D000F0876068696800F00C00B0EB810FEFD120
:1009E000306800F00700B8420BD9306820F00700EB
:1009F00038433060306800F00700B84201D0012071
:100A0000E5E72878400705D56068E96820F4E060EC
:100A1000084360602878000706D56068296920F4DB
:100A2000605040EAC100606000F04EF86168F0225A
:100A300092FAA2F201F0F001B2FA82F2D140074A32
:100A4000515CC8400649086006480068FFF7F4FD9D
:100A50000020BCE7002002400010024010170008F0
:100A60000C0000200400002008480949006849687B
:100A70004FF4E06292FAA2F201F4E061B2FA82F27B
:100A8000D140044A515CC840704700000C0000206F
:100A9000001002402017000808480949006849680A
:100AA0004FF4605292FAA2F201F46051B2FA82F26B
:100AB000D140044A515CC840704700000C0000203F
:100AC0000010024020170008164A10B55168164859
:100AD00001F00C03042B20D0082B1ED14FF470140E
:100AE00094FAA4F401F47013B4FA84F4E3400F4CC4
:100AF000D26AE45C0F2393FAA3F302F00F02B3FA75
:100B000083F3DA40094B1033C9039A5C06D50023FE
:100B10001946FFF7A9FBA0FB040110BD0448A4FB84
:100B2000000110BD0010024000127A00F01600080B
:100B300000093D002DE9F84F050071D02878FC4EE2
:100B4000C0074FF0010425D070686704C0F381002E
:100B5000012807D07068C0F3810002281BD170689B
:100B6000C00318D597FAA7F0B0FA80F040F0200043
:100B7000400901D0306800E0706A97FAA7F1B1FA35
:100B800081F101F01F0104FA01F1084265D06868A3
:100B90000028D2D061E06868B0F5803F0BD010B17A
:100BA000B0F5A02F17D0306820F480303060306866
:100BB00020F4802002E0306840F480303060F06A39
:100BC000A96820F00F000843F062686820B3FFF7BF
:100BD00013FD80460AE0306840F480203060EAE788
:100BE000FFF70AFDA0EB0800642871D897FAA7F078
:100BF000B0FA80F040F02000400901D0306800E0F9
:100C0000706A97FAA7F1B1FA81F101F01F0104FAB5
:100C100001F10842E4D020E0FFF7EEFC804607E057
:100C2000C2E000BFFFF7E8FCA0EB08006428DCD8B6
:100C300097FAA7F0B0FA80F040F02000400901D008
:100C4000306800E0706A97FAA7F1B1FA81F101F01B
:100C50001F0104FA01F10842E4D12878DFF8D482B8
:100C600080074FF0000A4FF0020730D570684FF050
:100C7000F80B10F00C0F07D07068C0F38100022849
:100C800027D17068C00324D497FAA7F0B0FA80F097
:100C900040F02000400901D0306800E0706A97FA07
:100CA000A7F1B1FA81F101F01F0104FA01F1084244
:100CB00002D02869012877D130689BFAABF220F086
:100CC000F8016869B2FA82F29040014331605AE05B
:100CD00064E1286988B394FAA4F0B0FA80F048F887
:100CE0002040FFF789FC814606E000BFFFF784FC47
:100CF000A0EB090002289AD897FAA7F0B0FA80F082
:100D000040F02000400901D0306800E0706A97FA96
:100D1000A7F1B1FA81F101F01F0104FA01F10842D3
:100D2000E4D030689BFAABF26969B2FA82F220F043
:100D3000F80091400843306025E0FFE794FAA4F002
:100D4000B0FA80F048F820A0FFF756FC814605E095
:100D5000FFF752FCA0EB09000228CCD897FAA7F0C5
:100D6000B0FA80F040F02000400901D0306800E087
:100D7000706A97FAA7F1B1FA81F101F01F0104FA44
:100D800001F10842E4D1287800076CD5A869A8B31E
:100D900094FAA4F0B0FA80F008EB8000C0F8804428
:100DA000FFF72AFC814607E0A4E100BFFFF724FC1F
:100DB000A0EB090002289ED897FAA7F0B0FA80F0BD
:100DC00040F06000B4EB501F01D130680BE097FA9F
:100DD000A7F0B0FA80F040F06000B7EB501F01D1EF
:100DE000306A00E0706A97FAA7F1B1FA81F101F078
:100DF0001F0104FA01F21042D8D034E0FFE794FA60
:100E0000A4F1B1FA81F108EB8101C1F880A4FFF7E8
:100E1000F3FB814606E000BFFFF7EEFBA0EB090005
:100E200002289AD897FAA7F0B0FA80F040F0600054
:100E3000B4EB501F01D130680BE097FAA7F0B0FA7D
:100E400080F040F06000B7EB501F01D1306A00E045
:100E5000706A97FAA7F1B1FA81F101F01F0104FA63
:100E600001F21042D8D12878400768D5F0694FF0D8
:100E70000009C00009D4F06940F08050F061F069C9
:100E80004FF0010900F0805000902B480168C9051F
:100E900012D4016841F480710160FFF7ADFB834615
:100EA00006E000BFFFF7A8FBA0EB0B00642875D895
:100EB00021480068C005F5D5E86801280AD008B1C6
:100EC000052811D0306A20F001003062306A20F02D
:100ED000040002E0306A40F001003062E86868B364
:100EE000FFF78AFB83460DE0306A40F00400306271
:100EF000F0E700BFFFF780FBA0EB0B0141F2883069
:100F000081424BD897FAA7F0B0FA80F040F0400049
:100F1000B4EB501F01D1306813E097FAA7F0B0FA94
:100F200080F040F04000B7EB501F09D1306A08E074
:100F30000010024000004242007000400CE040E01F
:100F4000706A97FAA7F1B1FA81F101F01F0104FA72
:100F500001F21042CED02DE0FFF74EFB834607E0B2
:100F6000FFF74AFBA0EB0B0141F28830814215D814
:100F700097FAA7F0B0FA80F040F04000B4EB501FB1
:100F800001D130680CE097FAA7F0B0FA80F040F099
:100F90004000B7EB501F02D1306A01E083E0706A75
:100FA00097FAA7F1B1FA81F101F01F0104FA01F2F9
:100FB0001042D5D1B9F1000F03D0F06920F0805074
:100FC000F061E86980B37168C1F38101022977D0CB
:100FD0004FF080714F000228504609D091FAA1F1DC
:100FE000B1FA81F148F82100FFF706FB05465DE004
:100FF000894691FAA1F1B1FA81F1C24648F821007F
:10100000FFF7FAFA804605E0FFF7F6FAA0EB0800D2
:10101000022848D897FAA7F0B0FA80F040F02000F4
:10102000400902D0306801E066E0706A97FAA7F1E3
:10103000B1FA81F101F01F0104FA01F10842E3D194
:10104000D5E908100843716821F4741108437060F1
:1010500099FAA9F0B0FA80F04AF82040FFF7CCFAEC
:10106000054604E0FFF7C8FA401B02281BD897FA90
:10107000A7F0B0FA80F040F02000400901D03068BD
:1010800000E0706A97FAA7F1B1FA81F101F01F014F
:1010900004FA01F10842E5D02EE000BFFFF7ACFAF8
:1010A000401B022802D90320BDE8F88F97FAA7F069
:1010B000B0FA80F040F02000400902D0306801E032
:1010C0000BE0706A97FAA7F1B1FA81F101F01F0104
:1010D00004FA01F10842E1D10EE00128E4D0706881
:1010E0002A6A00F48031914204D1696A00F47010D8
:1010F000884201D00120D7E70020D5E710B5401E77
:10110000B0F1807F01D3012010BD4FF0E024606179
:101110000F21601700F0CEFA0020A06107202061A7
:10112000002010BD10B5040002D0A06F10B107E080
:10113000012010BD002084F87400204600F026F83D
:101140002420A0672068016821F001010160204689
:1011500000F068F90128ECD0606A10B1204600F078
:10116000CFF82068416821F490414160206881688F
:1011700021F02A0181602068016841F001010160CD
:101180002046BDE8104000F01FB9000010B586B041
:10119000044614216846FFF7DEF8124920688842A9
:1011A0001ED11148816941F480418161816901F456
:1011B00080410591416941F40021416140696946DE
:1011C00000F40020059030200090022001900020C3
:1011D000029003200390072004900448FFF724F9AD
:1011E00006B010BD00380140001002400008004861
:1011F000FEE700000D4808B5416941F480014161F6
:10120000416901F480010091416941F4002141618B
:10121000416901F400210091416941F400314161CB
:10122000406900F40030009008BD0000001002404A
:101230000D4810B50B4901604FF416414160002183
:1012400081600C22C160C0E904128161C161016248
:101250004162FFF767FF002803D0BDE81040FFF7A9
:10126000E0B810BD0038014010000020FEE7FEE7A6
:1012700070477047FFF7C6B970B59EB02821684621
:10128000FFF769F8142119A8FFF765F83C210AA8AF
:10129000FFF761F801254FF4A020CDE900500024AC
:1012A0000294022628040495CDE907600001099004
:1012B0006846FFF73FFC08B172B6FEE70F20CDE9A4
:1012C00019064FF48060CDE91B40012119A81D9437
:1012D000FFF726FB08B172B6FEE70AA80A950C9440
:1012E000FFF712FA002801D072B6FEE71EB070BDFB
:1012F0000248016841F470010160704788ED00E028
:1013000090F82410C90706D001684A68836A22F45D
:1013100000321A434A6090F82410890706D5016804
:101320004A68C36A22F480321A434A6090F8241053
:10133000490706D501684A68036B22F480221A43E4
:101340004A6090F82410090706D501684A68436B83
:1013500022F400421A434A6090F82410C90606D5C8
:1013600001688A68836B22F480521A438A6090F87D
:101370002410890606D501688A68C36B22F40052DE
:101380001A438A6090F82410490611D501684A680A
:10139000036C22F480121A434A60016CB1F5801F7D
:1013A00006D101684A68436C22F4C0021A434A60BD
:1013B00090F82410090606D501684A68806C22F46A
:1013C000002202434A607047F8B500260446C0F880
:1013D0008060FFF711F90546206800686FF07E47CE
:1013E000000708D52B4600224FF400112046009735
:1013F00000F0FCF860B92068006840070AD52B4669
:1014000000224FF480012046009700F0EFF808B169
:101410000320F8BD2020A067E067266684F874608A
:101420000020F8BD70B5044680682169E269084370
:1014300061690025114322680843116849F20C6371
:1014400099430143116020684168E26821F44051EA
:1014500011434160216AA06901432068826822F437
:1014600030620A4382605A4A20685A4990420CD13D
:10147000086B10F0030006D001285FD002285FD06F
:10148000032845D158E0012143E0534A90420DD151
:10149000086B10F440304DD0B0F5803F4ED0B0F521
:1014A000003F4DD0B0F5403F32D145E04B4A90422D
:1014B0000DD1086B10F440203CD0B0F5802F3DD00A
:1014C000B0F5002F3CD0B0F5402F21D134E0444A94
:1014D00090420DD1086B10F440102BD0B0F5801F56
:1014E0002CD0B0F5001F2BD0B0F5401F10D123E059
:1014F0003C4A90420CD1086B10F440001AD0B0F571
:10150000800F1BD0B0F5000F1AD0B0F5400F13D0EC
:101510001021E3694FF40040334A4FF6EF768342DF
:101520002ED109294AD2DFE801F00D1013491549DF
:10153000494918000021ECE70221EAE70421E8E725
:101540000821E6E7FFF790FA06E0FFF7A5FA03E0C7
:10155000104602E0FFF7B8FA88B34100606801EB7B
:101560005001B1FBF0F081B2A1F11000B04225D8DA
:101570004FF6F07201EA0200C1F3420108431FE096
:1015800009291BD2DFE801F005080B1A0D1A1A1AF7
:101590001000FFF769FA06E0FFF77EFA03E0104655
:1015A00002E0FFF791FA50B1616800EB5100B0FB27
:1015B000F1F080B2A0F11001B14201D9012501E0A2
:1015C0002168C86000206066A066284670BD0000E3
:1015D0000038014000100240004400400048004034
:1015E000004C00400050004000127A002DE9F04706
:1015F0009A4617460E4604464FF000094FF0200861
:10160000089D4AE0681C48D0FEF7F6FFA0EB0A00F0
:10161000A8422AD84DB32068016849073DD5C06962
:10162000C043000539D421684FF400600862206887
:1016300050E8001F21F4D07140E80012002AF6D1D2
:101640002068083050E8001F21F0010140E8001236
:10165000002AF5D1C4F87880C4F87C80C4F8808072
:1016600084F874900320BDE8F087216851E8000FEA
:1016700020F4D07041E80002002AF6D1206808303A
:1016800050E8001F21F0010140E80012002AF5D1C6
:10169000C4F87880C4F87C80E2E72068C06936EA44
:1016A000000004D00020B842ACD00020DBE70120CD
:1016B000F9E7FEE70907090E002804DB00F1E02046
:1016C00080F80014704700F00F0000F1E02080F86F
:1016D000141D7047FEF79EFFFFF7CEFDFFF78AFD52
:1016E000FFF7A6FDFEE74FF04070E1EE100A7047ED
:1016F00002030405060708090A0B0C0D0E0F101053
:101700000102030405060708090A0B0C0D0E0F1051
:1017100000000000000000000102030406070809A1
:101720000000000001020304481700080000002028
:1017300010000000C4010008581700081000002025
:10174000E8060000E00100080100000010000000B1
:081750000000000000127A0005
:040000050800018965
:00000001FF
